{
  "contractName": "project",
  "abi": [
    {
      "inputs": [
        {
          "internalType": "string",
          "name": "_projectId",
          "type": "string"
        },
        {
          "components": [
            {
              "internalType": "uint256",
              "name": "seq",
              "type": "uint256"
            },
            {
              "internalType": "uint256",
              "name": "amount",
              "type": "uint256"
            }
          ],
          "internalType": "struct project.milestone[]",
          "name": "_milestone",
          "type": "tuple[]"
        },
        {
          "internalType": "address payable",
          "name": "_company",
          "type": "address"
        }
      ],
      "stateMutability": "payable",
      "type": "constructor"
    },
    {
      "inputs": [
        {
          "internalType": "string",
          "name": "_proofId",
          "type": "string"
        }
      ],
      "name": "uploadProof",
      "outputs": [],
      "stateMutability": "nonpayable",
      "type": "function"
    },
    {
      "inputs": [
        {
          "internalType": "bool",
          "name": "isApproved",
          "type": "bool"
        }
      ],
      "name": "verifyProof",
      "outputs": [],
      "stateMutability": "nonpayable",
      "type": "function"
    },
    {
      "inputs": [],
      "name": "releaseFund",
      "outputs": [],
      "stateMutability": "payable",
      "type": "function"
    },
    {
      "inputs": [
        {
          "internalType": "address payable",
          "name": "backer",
          "type": "address"
        }
      ],
      "name": "returnFund",
      "outputs": [],
      "stateMutability": "payable",
      "type": "function"
    }
  ],
  "bytecode": "0x60806040526040516200132b3803806200132b833981810160405281019062000029919062000475565b34600481905550826002908162000041919062000750565b506000600190505b82518111620000be578260018262000062919062000866565b81518110620000765762000075620008a1565b5b60200260200101516005600083815260200190815260200160002060008201518160000155602082015181600101559050508080620000b590620008d0565b91505062000049565b5080600360006101000a81548173ffffffffffffffffffffffffffffffffffffffff021916908373ffffffffffffffffffffffffffffffffffffffff1602179055505050506200091d565b6000604051905090565b600080fd5b600080fd5b600080fd5b600080fd5b6000601f19601f8301169050919050565b7f4e487b7100000000000000000000000000000000000000000000000000000000600052604160045260246000fd5b620001728262000127565b810181811067ffffffffffffffff8211171562000194576200019362000138565b5b80604052505050565b6000620001a962000109565b9050620001b7828262000167565b919050565b600067ffffffffffffffff821115620001da57620001d962000138565b5b620001e58262000127565b9050602081019050919050565b60005b8381101562000212578082015181840152602081019050620001f5565b60008484015250505050565b6000620002356200022f84620001bc565b6200019d565b90508281526020810184848401111562000254576200025362000122565b5b62000261848285620001f2565b509392505050565b600082601f8301126200028157620002806200011d565b5b8151620002938482602086016200021e565b91505092915050565b600067ffffffffffffffff821115620002ba57620002b962000138565b5b602082029050602081019050919050565b600080fd5b600080fd5b6000819050919050565b620002ea81620002d5565b8114620002f657600080fd5b50565b6000815190506200030a81620002df565b92915050565b600060408284031215620003295762000328620002d0565b5b6200033560406200019d565b905060006200034784828501620002f9565b60008301525060206200035d84828501620002f9565b60208301525092915050565b6000620003806200037a846200029c565b6200019d565b90508083825260208201905060408402830185811115620003a657620003a5620002cb565b5b835b81811015620003d35780620003be888262000310565b845260208401935050604081019050620003a8565b5050509392505050565b600082601f830112620003f557620003f46200011d565b5b81516200040784826020860162000369565b91505092915050565b600073ffffffffffffffffffffffffffffffffffffffff82169050919050565b60006200043d8262000410565b9050919050565b6200044f8162000430565b81146200045b57600080fd5b50565b6000815190506200046f8162000444565b92915050565b60008060006060848603121562000491576200049062000113565b5b600084015167ffffffffffffffff811115620004b257620004b162000118565b5b620004c08682870162000269565b935050602084015167ffffffffffffffff811115620004e457620004e362000118565b5b620004f286828701620003dd565b925050604062000505868287016200045e565b9150509250925092565b600081519050919050565b7f4e487b7100000000000000000000000000000000000000000000000000000000600052602260045260246000fd5b600060028204905060018216806200056257607f821691505b6020821081036200057857620005776200051a565b5b50919050565b60008190508160005260206000209050919050565b60006020601f8301049050919050565b600082821b905092915050565b600060088302620005e27fffffffffffffffffffffffffffffffffffffffffffffffffffffffffffffffff82620005a3565b620005ee8683620005a3565b95508019841693508086168417925050509392505050565b6000819050919050565b6000620006316200062b6200062584620002d5565b62000606565b620002d5565b9050919050565b6000819050919050565b6200064d8362000610565b620006656200065c8262000638565b848454620005b0565b825550505050565b600090565b6200067c6200066d565b6200068981848462000642565b505050565b5b81811015620006b157620006a560008262000672565b6001810190506200068f565b5050565b601f8211156200070057620006ca816200057e565b620006d58462000593565b81016020851015620006e5578190505b620006fd620006f48562000593565b8301826200068e565b50505b505050565b600082821c905092915050565b6000620007256000198460080262000705565b1980831691505092915050565b600062000740838362000712565b9150826002028217905092915050565b6200075b826200050f565b67ffffffffffffffff81111562000777576200077662000138565b5b62000783825462000549565b62000790828285620006b5565b600060209050601f831160018114620007c85760008415620007b3578287015190505b620007bf858262000732565b8655506200082f565b601f198416620007d8866200057e565b60005b828110156200080257848901518255600182019150602085019450602081019050620007db565b868310156200082257848901516200081e601f89168262000712565b8355505b6001600288020188555050505b505050505050565b7f4e487b7100000000000000000000000000000000000000000000000000000000600052601160045260246000fd5b60006200087382620002d5565b91506200088083620002d5565b92508282039050818111156200089b576200089a62000837565b5b92915050565b7f4e487b7100000000000000000000000000000000000000000000000000000000600052603260045260246000fd5b6000620008dd82620002d5565b91507fffffffffffffffffffffffffffffffffffffffffffffffffffffffffffffffff820362000912576200091162000837565b5b600182019050919050565b6109fe806200092d6000396000f3fe60806040526004361061003f5760003560e01c80632f3b79581461004457806376c370a91461006d578063a2ff553914610089578063d245fbe114610093575b600080fd5b34801561005057600080fd5b5061006b6004803603810190610066919061045e565b6100bc565b005b61008760048036038101906100829190610505565b6100f9565b005b6100916101b8565b005b34801561009f57600080fd5b506100ba60048036038101906100b5919061056a565b610299565b005b80600190816100cb91906107b8565b5060008060006101000a81548160ff021916908360038111156100f1576100f061088a565b5b021790555050565b60038081111561010c5761010b61088a565b5b60008054906101000a900460ff16600381111561012c5761012b61088a565b5b1461016c576040517f08c379a00000000000000000000000000000000000000000000000000000000081526004016101639061093c565b60405180910390fd5b8073ffffffffffffffffffffffffffffffffffffffff166108fc6004549081150290604051600060405180830381858888f193505050501580156101b4573d6000803e3d6000fd5b5050565b600160038111156101cc576101cb61088a565b5b60008054906101000a900460ff1660038111156101ec576101eb61088a565b5b1461022c576040517f08c379a0000000000000000000000000000000000000000000000000000000008152600401610223906109a8565b60405180910390fd5b600360009054906101000a900473ffffffffffffffffffffffffffffffffffffffff1673ffffffffffffffffffffffffffffffffffffffff166108fc6004549081150290604051600060405180830381858888f19350505050158015610296573d6000803e3d6000fd5b50565b80156102d65760016000806101000a81548160ff021916908360038111156102c4576102c361088a565b5b02179055506102d16101b8565b610301565b60036000806101000a81548160ff021916908360038111156102fb576102fa61088a565b5b02179055505b50565b6000604051905090565b600080fd5b600080fd5b600080fd5b600080fd5b6000601f19601f8301169050919050565b7f4e487b7100000000000000000000000000000000000000000000000000000000600052604160045260246000fd5b61036b82610322565b810181811067ffffffffffffffff8211171561038a57610389610333565b5b80604052505050565b600061039d610304565b90506103a98282610362565b919050565b600067ffffffffffffffff8211156103c9576103c8610333565b5b6103d282610322565b9050602081019050919050565b82818337600083830152505050565b60006104016103fc846103ae565b610393565b90508281526020810184848401111561041d5761041c61031d565b5b6104288482856103df565b509392505050565b600082601f83011261044557610444610318565b5b81356104558482602086016103ee565b91505092915050565b6000602082840312156104745761047361030e565b5b600082013567ffffffffffffffff81111561049257610491610313565b5b61049e84828501610430565b91505092915050565b600073ffffffffffffffffffffffffffffffffffffffff82169050919050565b60006104d2826104a7565b9050919050565b6104e2816104c7565b81146104ed57600080fd5b50565b6000813590506104ff816104d9565b92915050565b60006020828403121561051b5761051a61030e565b5b6000610529848285016104f0565b91505092915050565b60008115159050919050565b61054781610532565b811461055257600080fd5b50565b6000813590506105648161053e565b92915050565b6000602082840312156105805761057f61030e565b5b600061058e84828501610555565b91505092915050565b600081519050919050565b7f4e487b7100000000000000000000000000000000000000000000000000000000600052602260045260246000fd5b600060028204905060018216806105e957607f821691505b6020821081036105fc576105fb6105a2565b5b50919050565b60008190508160005260206000209050919050565b60006020601f8301049050919050565b600082821b905092915050565b6000600883026106647fffffffffffffffffffffffffffffffffffffffffffffffffffffffffffffffff82610627565b61066e8683610627565b95508019841693508086168417925050509392505050565b6000819050919050565b6000819050919050565b60006106b56106b06106ab84610686565b610690565b610686565b9050919050565b6000819050919050565b6106cf8361069a565b6106e36106db826106bc565b848454610634565b825550505050565b600090565b6106f86106eb565b6107038184846106c6565b505050565b5b818110156107275761071c6000826106f0565b600181019050610709565b5050565b601f82111561076c5761073d81610602565b61074684610617565b81016020851015610755578190505b61076961076185610617565b830182610708565b50505b505050565b600082821c905092915050565b600061078f60001984600802610771565b1980831691505092915050565b60006107a8838361077e565b9150826002028217905092915050565b6107c182610597565b67ffffffffffffffff8111156107da576107d9610333565b5b6107e482546105d1565b6107ef82828561072b565b600060209050601f8311600181146108225760008415610810578287015190505b61081a858261079c565b865550610882565b601f19841661083086610602565b60005b8281101561085857848901518255600182019150602085019450602081019050610833565b868310156108755784890151610871601f89168261077e565b8355505b6001600288020188555050505b505050505050565b7f4e487b7100000000000000000000000000000000000000000000000000000000600052602160045260246000fd5b600082825260208201905092915050565b7f497420646f6573206e6f74206d6565742074686520726571756972656d656e7460008201527f20746f2072657475726e2066756e640000000000000000000000000000000000602082015250565b6000610926602f836108b9565b9150610931826108ca565b604082019050919050565b6000602082019050818103600083015261095581610919565b9050919050565b7f50726f6f66206973206e6f7420617070726f7665640000000000000000000000600082015250565b60006109926015836108b9565b915061099d8261095c565b602082019050919050565b600060208201905081810360008301526109c181610985565b905091905056fea2646970667358221220e896d84683dc6f9f057abc69de2bf5efb25a72b4e887b0610acf9008ee40448064736f6c63430008110033",
  "immutableReferences": {},
  "source": "// SPDX-License-Identifier: MIT\r\npragma solidity >=0.4.22 <0.9.0;\r\n\r\ncontract project{\r\n    enum State {completed, approved, notCompleted, notApproved}\r\n    State state;\r\n    string proofId;\r\n    string projectId;\r\n    address payable company;\r\n    uint fundAmount;\r\n    struct milestone{\r\n        uint seq;\r\n        uint amount;\r\n    }\r\n    //address payable backer;\r\n    mapping(uint => milestone) milestones;\r\n    constructor (string memory _projectId, milestone[] memory _milestone, address payable _company) payable{\r\n        fundAmount = msg.value;\r\n        projectId = _projectId;\r\n        for (uint i = 1; i <= _milestone.length; i++) {\r\n            milestones[i] = _milestone[i-1];\r\n        }\r\n        company = _company;\r\n        //backer = _backer;\r\n    }\r\n\r\n    function uploadProof(string memory _proofId) public{\r\n        proofId = _proofId;\r\n        state = State.completed;\r\n    }\r\n\r\n    function verifyProof(bool isApproved) public{\r\n        if(isApproved){ \r\n            state = State.approved;\r\n            releaseFund();\r\n        } else {\r\n            state = State.notApproved;\r\n            //returnFund();\r\n        }\r\n    }\r\n\r\n    function releaseFund() public payable{\r\n        require(state == State.approved,\"Proof is not approved\");\r\n        company.transfer(fundAmount);\r\n    }\r\n\r\n    function returnFund(address payable backer) public payable{\r\n        require(state == State.notApproved,\"It does not meet the requirement to return fund\");\r\n        backer.transfer(fundAmount);\r\n    }\r\n}\r\n",
  "sourcePath": "D:\\Documents\\CAT403 blockchain-based crowdfunding platform\\contract\\contracts\\project.sol",
  "compiler": {
    "name": "solc",
    "version": "0.8.17+commit.8df45f5f.Emscripten.clang"
  },
  "schemaVersion": "3.4.11",
  "updatedAt": "2023-03-07T06:11:39.601Z",
  "devdoc": {
    "kind": "dev",
    "methods": {},
    "version": 1
  },
  "userdoc": {
    "kind": "user",
    "methods": {},
    "version": 1
  }
}