{
  "contractName": "project",
  "abi": [
    {
      "inputs": [
        {
          "internalType": "string",
          "name": "_projectId",
          "type": "string"
        },
        {
          "components": [
            {
              "internalType": "uint256",
              "name": "seq",
              "type": "uint256"
            },
            {
              "internalType": "uint256",
              "name": "amount",
              "type": "uint256"
            }
          ],
          "internalType": "struct project.milestone[]",
          "name": "_milestone",
          "type": "tuple[]"
        },
        {
          "internalType": "address payable",
          "name": "_company",
          "type": "address"
        }
      ],
      "stateMutability": "payable",
      "type": "constructor"
    },
    {
      "inputs": [],
      "name": "getMilestone",
      "outputs": [
        {
          "components": [
            {
              "internalType": "uint256",
              "name": "seq",
              "type": "uint256"
            },
            {
              "internalType": "uint256",
              "name": "amount",
              "type": "uint256"
            }
          ],
          "internalType": "struct project.milestone",
          "name": "",
          "type": "tuple"
        }
      ],
      "stateMutability": "view",
      "type": "function"
    },
    {
      "inputs": [
        {
          "internalType": "string",
          "name": "_proofId",
          "type": "string"
        }
      ],
      "name": "uploadProof",
      "outputs": [],
      "stateMutability": "nonpayable",
      "type": "function"
    },
    {
      "inputs": [
        {
          "internalType": "bool",
          "name": "isApproved",
          "type": "bool"
        }
      ],
      "name": "verifyProof",
      "outputs": [],
      "stateMutability": "nonpayable",
      "type": "function"
    },
    {
      "inputs": [],
      "name": "releaseFund",
      "outputs": [],
      "stateMutability": "payable",
      "type": "function"
    },
    {
      "inputs": [
        {
          "internalType": "address payable",
          "name": "backer",
          "type": "address"
        }
      ],
      "name": "returnFund",
      "outputs": [],
      "stateMutability": "payable",
      "type": "function"
    }
  ],
  "bytecode": "0x60806040526040516200141438038062001414833981810160405281019062000029919062000475565b34600481905550826002908162000041919062000750565b506000600190505b82518111620000be578260018262000062919062000866565b81518110620000765762000075620008a1565b5b60200260200101516005600083815260200190815260200160002060008201518160000155602082015181600101559050508080620000b590620008d0565b91505062000049565b5080600360006101000a81548173ffffffffffffffffffffffffffffffffffffffff021916908373ffffffffffffffffffffffffffffffffffffffff1602179055505050506200091d565b6000604051905090565b600080fd5b600080fd5b600080fd5b600080fd5b6000601f19601f8301169050919050565b7f4e487b7100000000000000000000000000000000000000000000000000000000600052604160045260246000fd5b620001728262000127565b810181811067ffffffffffffffff8211171562000194576200019362000138565b5b80604052505050565b6000620001a962000109565b9050620001b7828262000167565b919050565b600067ffffffffffffffff821115620001da57620001d962000138565b5b620001e58262000127565b9050602081019050919050565b60005b8381101562000212578082015181840152602081019050620001f5565b60008484015250505050565b6000620002356200022f84620001bc565b6200019d565b90508281526020810184848401111562000254576200025362000122565b5b62000261848285620001f2565b509392505050565b600082601f8301126200028157620002806200011d565b5b8151620002938482602086016200021e565b91505092915050565b600067ffffffffffffffff821115620002ba57620002b962000138565b5b602082029050602081019050919050565b600080fd5b600080fd5b6000819050919050565b620002ea81620002d5565b8114620002f657600080fd5b50565b6000815190506200030a81620002df565b92915050565b600060408284031215620003295762000328620002d0565b5b6200033560406200019d565b905060006200034784828501620002f9565b60008301525060206200035d84828501620002f9565b60208301525092915050565b6000620003806200037a846200029c565b6200019d565b90508083825260208201905060408402830185811115620003a657620003a5620002cb565b5b835b81811015620003d35780620003be888262000310565b845260208401935050604081019050620003a8565b5050509392505050565b600082601f830112620003f557620003f46200011d565b5b81516200040784826020860162000369565b91505092915050565b600073ffffffffffffffffffffffffffffffffffffffff82169050919050565b60006200043d8262000410565b9050919050565b6200044f8162000430565b81146200045b57600080fd5b50565b6000815190506200046f8162000444565b92915050565b60008060006060848603121562000491576200049062000113565b5b600084015167ffffffffffffffff811115620004b257620004b162000118565b5b620004c08682870162000269565b935050602084015167ffffffffffffffff811115620004e457620004e362000118565b5b620004f286828701620003dd565b925050604062000505868287016200045e565b9150509250925092565b600081519050919050565b7f4e487b7100000000000000000000000000000000000000000000000000000000600052602260045260246000fd5b600060028204905060018216806200056257607f821691505b6020821081036200057857620005776200051a565b5b50919050565b60008190508160005260206000209050919050565b60006020601f8301049050919050565b600082821b905092915050565b600060088302620005e27fffffffffffffffffffffffffffffffffffffffffffffffffffffffffffffffff82620005a3565b620005ee8683620005a3565b95508019841693508086168417925050509392505050565b6000819050919050565b6000620006316200062b6200062584620002d5565b62000606565b620002d5565b9050919050565b6000819050919050565b6200064d8362000610565b620006656200065c8262000638565b848454620005b0565b825550505050565b600090565b6200067c6200066d565b6200068981848462000642565b505050565b5b81811015620006b157620006a560008262000672565b6001810190506200068f565b5050565b601f8211156200070057620006ca816200057e565b620006d58462000593565b81016020851015620006e5578190505b620006fd620006f48562000593565b8301826200068e565b50505b505050565b600082821c905092915050565b6000620007256000198460080262000705565b1980831691505092915050565b600062000740838362000712565b9150826002028217905092915050565b6200075b826200050f565b67ffffffffffffffff81111562000777576200077662000138565b5b62000783825462000549565b62000790828285620006b5565b600060209050601f831160018114620007c85760008415620007b3578287015190505b620007bf858262000732565b8655506200082f565b601f198416620007d8866200057e565b60005b828110156200080257848901518255600182019150602085019450602081019050620007db565b868310156200082257848901516200081e601f89168262000712565b8355505b6001600288020188555050505b505050505050565b7f4e487b7100000000000000000000000000000000000000000000000000000000600052601160045260246000fd5b60006200087382620002d5565b91506200088083620002d5565b92508282039050818111156200089b576200089a62000837565b5b92915050565b7f4e487b7100000000000000000000000000000000000000000000000000000000600052603260045260246000fd5b6000620008dd82620002d5565b91507fffffffffffffffffffffffffffffffffffffffffffffffffffffffffffffffff820362000912576200091162000837565b5b600182019050919050565b610ae7806200092d6000396000f3fe60806040526004361061004a5760003560e01c806309d34f3d1461004f5780632f3b79581461007a57806376c370a9146100a3578063a2ff5539146100bf578063d245fbe1146100c9575b600080fd5b34801561005b57600080fd5b506100646100f2565b60405161007191906103dc565b60405180910390f35b34801561008657600080fd5b506100a1600480360381019061009c9190610551565b610132565b005b6100bd60048036038101906100b891906105f8565b61016f565b005b6100c761022e565b005b3480156100d557600080fd5b506100f060048036038101906100eb919061065d565b61030f565b005b6100fa61037a565b600560006001815260200190815260200160002060405180604001604052908160008201548152602001600182015481525050905090565b806001908161014191906108a1565b5060008060006101000a81548160ff0219169083600381111561016757610166610973565b5b021790555050565b60038081111561018257610181610973565b5b60008054906101000a900460ff1660038111156101a2576101a1610973565b5b146101e2576040517f08c379a00000000000000000000000000000000000000000000000000000000081526004016101d990610a25565b60405180910390fd5b8073ffffffffffffffffffffffffffffffffffffffff166108fc6004549081150290604051600060405180830381858888f1935050505015801561022a573d6000803e3d6000fd5b5050565b6001600381111561024257610241610973565b5b60008054906101000a900460ff16600381111561026257610261610973565b5b146102a2576040517f08c379a000000000000000000000000000000000000000000000000000000000815260040161029990610a91565b60405180910390fd5b600360009054906101000a900473ffffffffffffffffffffffffffffffffffffffff1673ffffffffffffffffffffffffffffffffffffffff166108fc6004549081150290604051600060405180830381858888f1935050505015801561030c573d6000803e3d6000fd5b50565b801561034c5760016000806101000a81548160ff0219169083600381111561033a57610339610973565b5b021790555061034761022e565b610377565b60036000806101000a81548160ff0219169083600381111561037157610370610973565b5b02179055505b50565b604051806040016040528060008152602001600081525090565b6000819050919050565b6103a781610394565b82525050565b6040820160008201516103c3600085018261039e565b5060208201516103d6602085018261039e565b50505050565b60006040820190506103f160008301846103ad565b92915050565b6000604051905090565b600080fd5b600080fd5b600080fd5b600080fd5b6000601f19601f8301169050919050565b7f4e487b7100000000000000000000000000000000000000000000000000000000600052604160045260246000fd5b61045e82610415565b810181811067ffffffffffffffff8211171561047d5761047c610426565b5b80604052505050565b60006104906103f7565b905061049c8282610455565b919050565b600067ffffffffffffffff8211156104bc576104bb610426565b5b6104c582610415565b9050602081019050919050565b82818337600083830152505050565b60006104f46104ef846104a1565b610486565b9050828152602081018484840111156105105761050f610410565b5b61051b8482856104d2565b509392505050565b600082601f8301126105385761053761040b565b5b81356105488482602086016104e1565b91505092915050565b60006020828403121561056757610566610401565b5b600082013567ffffffffffffffff81111561058557610584610406565b5b61059184828501610523565b91505092915050565b600073ffffffffffffffffffffffffffffffffffffffff82169050919050565b60006105c58261059a565b9050919050565b6105d5816105ba565b81146105e057600080fd5b50565b6000813590506105f2816105cc565b92915050565b60006020828403121561060e5761060d610401565b5b600061061c848285016105e3565b91505092915050565b60008115159050919050565b61063a81610625565b811461064557600080fd5b50565b60008135905061065781610631565b92915050565b60006020828403121561067357610672610401565b5b600061068184828501610648565b91505092915050565b600081519050919050565b7f4e487b7100000000000000000000000000000000000000000000000000000000600052602260045260246000fd5b600060028204905060018216806106dc57607f821691505b6020821081036106ef576106ee610695565b5b50919050565b60008190508160005260206000209050919050565b60006020601f8301049050919050565b600082821b905092915050565b6000600883026107577fffffffffffffffffffffffffffffffffffffffffffffffffffffffffffffffff8261071a565b610761868361071a565b95508019841693508086168417925050509392505050565b6000819050919050565b600061079e61079961079484610394565b610779565b610394565b9050919050565b6000819050919050565b6107b883610783565b6107cc6107c4826107a5565b848454610727565b825550505050565b600090565b6107e16107d4565b6107ec8184846107af565b505050565b5b81811015610810576108056000826107d9565b6001810190506107f2565b5050565b601f82111561085557610826816106f5565b61082f8461070a565b8101602085101561083e578190505b61085261084a8561070a565b8301826107f1565b50505b505050565b600082821c905092915050565b60006108786000198460080261085a565b1980831691505092915050565b60006108918383610867565b9150826002028217905092915050565b6108aa8261068a565b67ffffffffffffffff8111156108c3576108c2610426565b5b6108cd82546106c4565b6108d8828285610814565b600060209050601f83116001811461090b57600084156108f9578287015190505b6109038582610885565b86555061096b565b601f198416610919866106f5565b60005b828110156109415784890151825560018201915060208501945060208101905061091c565b8683101561095e578489015161095a601f891682610867565b8355505b6001600288020188555050505b505050505050565b7f4e487b7100000000000000000000000000000000000000000000000000000000600052602160045260246000fd5b600082825260208201905092915050565b7f497420646f6573206e6f74206d6565742074686520726571756972656d656e7460008201527f20746f2072657475726e2066756e640000000000000000000000000000000000602082015250565b6000610a0f602f836109a2565b9150610a1a826109b3565b604082019050919050565b60006020820190508181036000830152610a3e81610a02565b9050919050565b7f50726f6f66206973206e6f7420617070726f7665640000000000000000000000600082015250565b6000610a7b6015836109a2565b9150610a8682610a45565b602082019050919050565b60006020820190508181036000830152610aaa81610a6e565b905091905056fea264697066735822122015ea19f921e49e6189959aa68eed6e5cb62aa40fa1274b787f2467e7276804a564736f6c63430008110033",
  "immutableReferences": {},
  "source": "// SPDX-License-Identifier: MIT\r\npragma solidity >=0.4.22 <0.9.0;\r\n\r\ncontract project{\r\n    enum State {completed, approved, notCompleted, notApproved}\r\n    State state;\r\n    string proofId;\r\n    string projectId;\r\n    address payable company;\r\n    uint fundAmount;\r\n    struct milestone{\r\n        uint seq;\r\n        uint amount;\r\n    }\r\n    //address payable backer;\r\n    mapping(uint => milestone) milestones;\r\n    constructor (string memory _projectId, milestone[] memory _milestone, address payable _company) payable{\r\n        fundAmount = msg.value;\r\n        projectId = _projectId;\r\n        for (uint i = 1; i <= _milestone.length; i++) {\r\n            milestones[i] = _milestone[i-1];\r\n        }\r\n        company = _company;\r\n        //backer = _backer;\r\n    }\r\n\r\n    function getMilestone() public view returns (milestone memory){\r\n        return milestones[1];\r\n    }\r\n\r\n    function uploadProof(string memory _proofId) public{\r\n        proofId = _proofId;\r\n        state = State.completed;\r\n    }\r\n\r\n    function verifyProof(bool isApproved) public{\r\n        if(isApproved){ \r\n            state = State.approved;\r\n            releaseFund();\r\n        } else {\r\n            state = State.notApproved;\r\n            //returnFund();\r\n        }\r\n    }\r\n\r\n    function releaseFund() public payable{\r\n        require(state == State.approved,\"Proof is not approved\");\r\n        company.transfer(fundAmount);\r\n    }\r\n\r\n    function returnFund(address payable backer) public payable{\r\n        require(state == State.notApproved,\"It does not meet the requirement to return fund\");\r\n        backer.transfer(fundAmount);\r\n    }\r\n}\r\n",
  "sourcePath": "D:\\Documents\\CAT403 blockchain-based crowdfunding platform\\contract\\contracts\\project.sol",
  "compiler": {
    "name": "solc",
    "version": "0.8.17+commit.8df45f5f.Emscripten.clang"
  },
  "schemaVersion": "3.4.11",
  "updatedAt": "2023-03-07T13:28:29.730Z",
  "devdoc": {
    "kind": "dev",
    "methods": {},
    "version": 1
  },
  "userdoc": {
    "kind": "user",
    "methods": {},
    "version": 1
  }
}