{
  "contractName": "project",
  "abi": [
    {
      "inputs": [
        {
          "internalType": "uint256",
          "name": "_projectId",
          "type": "uint256"
        },
        {
          "internalType": "uint256",
          "name": "_milestoneId",
          "type": "uint256"
        },
        {
          "internalType": "address payable",
          "name": "_company",
          "type": "address"
        }
      ],
      "stateMutability": "payable",
      "type": "constructor",
      "payable": true
    },
    {
      "inputs": [
        {
          "internalType": "string",
          "name": "_proofId",
          "type": "string"
        }
      ],
      "name": "uploadProof",
      "outputs": [],
      "stateMutability": "nonpayable",
      "type": "function"
    },
    {
      "inputs": [
        {
          "internalType": "bool",
          "name": "isApproved",
          "type": "bool"
        }
      ],
      "name": "verifyProof",
      "outputs": [],
      "stateMutability": "nonpayable",
      "type": "function"
    },
    {
      "inputs": [],
      "name": "releaseFund",
      "outputs": [],
      "stateMutability": "payable",
      "type": "function",
      "payable": true
    },
    {
      "inputs": [
        {
          "internalType": "address payable",
          "name": "backer",
          "type": "address"
        }
      ],
      "name": "returnFund",
      "outputs": [],
      "stateMutability": "payable",
      "type": "function",
      "payable": true
    }
  ],
  "bytecode": "0x6080604052604051610b7c380380610b7c8339818101604052810190610025919061011c565b34600581905550826002819055508160038190555080600460006101000a81548173ffffffffffffffffffffffffffffffffffffffff021916908373ffffffffffffffffffffffffffffffffffffffff16021790555050505061016f565b600080fd5b6000819050919050565b61009b81610088565b81146100a657600080fd5b50565b6000815190506100b881610092565b92915050565b600073ffffffffffffffffffffffffffffffffffffffff82169050919050565b60006100e9826100be565b9050919050565b6100f9816100de565b811461010457600080fd5b50565b600081519050610116816100f0565b92915050565b60008060006060848603121561013557610134610083565b5b6000610143868287016100a9565b9350506020610154868287016100a9565b925050604061016586828701610107565b9150509250925092565b6109fe8061017e6000396000f3fe60806040526004361061003f5760003560e01c80632f3b79581461004457806376c370a91461006d578063a2ff553914610089578063d245fbe114610093575b600080fd5b34801561005057600080fd5b5061006b6004803603810190610066919061045e565b6100bc565b005b61008760048036038101906100829190610505565b6100f9565b005b6100916101b8565b005b34801561009f57600080fd5b506100ba60048036038101906100b5919061056a565b610299565b005b80600190816100cb91906107b8565b5060008060006101000a81548160ff021916908360038111156100f1576100f061088a565b5b021790555050565b60038081111561010c5761010b61088a565b5b60008054906101000a900460ff16600381111561012c5761012b61088a565b5b1461016c576040517f08c379a00000000000000000000000000000000000000000000000000000000081526004016101639061093c565b60405180910390fd5b8073ffffffffffffffffffffffffffffffffffffffff166108fc6005549081150290604051600060405180830381858888f193505050501580156101b4573d6000803e3d6000fd5b5050565b600160038111156101cc576101cb61088a565b5b60008054906101000a900460ff1660038111156101ec576101eb61088a565b5b1461022c576040517f08c379a0000000000000000000000000000000000000000000000000000000008152600401610223906109a8565b60405180910390fd5b600460009054906101000a900473ffffffffffffffffffffffffffffffffffffffff1673ffffffffffffffffffffffffffffffffffffffff166108fc6005549081150290604051600060405180830381858888f19350505050158015610296573d6000803e3d6000fd5b50565b80156102d65760016000806101000a81548160ff021916908360038111156102c4576102c361088a565b5b02179055506102d16101b8565b610301565b60036000806101000a81548160ff021916908360038111156102fb576102fa61088a565b5b02179055505b50565b6000604051905090565b600080fd5b600080fd5b600080fd5b600080fd5b6000601f19601f8301169050919050565b7f4e487b7100000000000000000000000000000000000000000000000000000000600052604160045260246000fd5b61036b82610322565b810181811067ffffffffffffffff8211171561038a57610389610333565b5b80604052505050565b600061039d610304565b90506103a98282610362565b919050565b600067ffffffffffffffff8211156103c9576103c8610333565b5b6103d282610322565b9050602081019050919050565b82818337600083830152505050565b60006104016103fc846103ae565b610393565b90508281526020810184848401111561041d5761041c61031d565b5b6104288482856103df565b509392505050565b600082601f83011261044557610444610318565b5b81356104558482602086016103ee565b91505092915050565b6000602082840312156104745761047361030e565b5b600082013567ffffffffffffffff81111561049257610491610313565b5b61049e84828501610430565b91505092915050565b600073ffffffffffffffffffffffffffffffffffffffff82169050919050565b60006104d2826104a7565b9050919050565b6104e2816104c7565b81146104ed57600080fd5b50565b6000813590506104ff816104d9565b92915050565b60006020828403121561051b5761051a61030e565b5b6000610529848285016104f0565b91505092915050565b60008115159050919050565b61054781610532565b811461055257600080fd5b50565b6000813590506105648161053e565b92915050565b6000602082840312156105805761057f61030e565b5b600061058e84828501610555565b91505092915050565b600081519050919050565b7f4e487b7100000000000000000000000000000000000000000000000000000000600052602260045260246000fd5b600060028204905060018216806105e957607f821691505b6020821081036105fc576105fb6105a2565b5b50919050565b60008190508160005260206000209050919050565b60006020601f8301049050919050565b600082821b905092915050565b6000600883026106647fffffffffffffffffffffffffffffffffffffffffffffffffffffffffffffffff82610627565b61066e8683610627565b95508019841693508086168417925050509392505050565b6000819050919050565b6000819050919050565b60006106b56106b06106ab84610686565b610690565b610686565b9050919050565b6000819050919050565b6106cf8361069a565b6106e36106db826106bc565b848454610634565b825550505050565b600090565b6106f86106eb565b6107038184846106c6565b505050565b5b818110156107275761071c6000826106f0565b600181019050610709565b5050565b601f82111561076c5761073d81610602565b61074684610617565b81016020851015610755578190505b61076961076185610617565b830182610708565b50505b505050565b600082821c905092915050565b600061078f60001984600802610771565b1980831691505092915050565b60006107a8838361077e565b9150826002028217905092915050565b6107c182610597565b67ffffffffffffffff8111156107da576107d9610333565b5b6107e482546105d1565b6107ef82828561072b565b600060209050601f8311600181146108225760008415610810578287015190505b61081a858261079c565b865550610882565b601f19841661083086610602565b60005b8281101561085857848901518255600182019150602085019450602081019050610833565b868310156108755784890151610871601f89168261077e565b8355505b6001600288020188555050505b505050505050565b7f4e487b7100000000000000000000000000000000000000000000000000000000600052602160045260246000fd5b600082825260208201905092915050565b7f497420646f6573206e6f74206d6565742074686520726571756972656d656e7460008201527f20746f2072657475726e2066756e640000000000000000000000000000000000602082015250565b6000610926602f836108b9565b9150610931826108ca565b604082019050919050565b6000602082019050818103600083015261095581610919565b9050919050565b7f50726f6f66206973206e6f7420617070726f7665640000000000000000000000600082015250565b60006109926015836108b9565b915061099d8261095c565b602082019050919050565b600060208201905081810360008301526109c181610985565b905091905056fea26469706673582212202e08a36e664190c6e68218e58662bc484b771aa94878d0800d4db5269d26263864736f6c63430008110033",
  "immutableReferences": {},
  "source": "// SPDX-License-Identifier: MIT\npragma solidity >=0.4.22 <0.9.0;\n\ncontract project{\n    enum State {completed, approved, notCompleted, notApproved}\n    State state;\n    string proofId;\n    uint projectId;\n    uint milestoneId;\n    address payable company;\n    uint fundAmount;\n    //address payable backer;\n\n    constructor (uint _projectId, uint _milestoneId, address payable _company) payable{\n        fundAmount = msg.value;\n        projectId = _projectId;\n        milestoneId = _milestoneId;\n        company = _company;\n        //backer = _backer;\n    }\n\n    function uploadProof(string memory _proofId) public{\n        proofId = _proofId;\n        state = State.completed;\n    }\n\n    function verifyProof(bool isApproved) public{\n        if(isApproved){ \n            state = State.approved;\n            releaseFund();\n        } else {\n            state = State.notApproved;\n            //returnFund();\n        }\n    }\n\n    function releaseFund() public payable{\n        require(state == State.approved,\"Proof is not approved\");\n        company.transfer(fundAmount);\n    }\n\n    function returnFund(address payable backer) public payable{\n        require(state == State.notApproved,\"It does not meet the requirement to return fund\");\n        backer.transfer(fundAmount);\n    }\n}\n",
  "sourcePath": "D:\\Documents\\CAT403 blockchain-based crowdfunding platform\\contract\\contracts\\project.sol",
  "compiler": {
    "name": "solc",
    "version": "0.8.17+commit.8df45f5f.Emscripten.clang"
  },
  "schemaVersion": "3.4.11",
  "updatedAt": "2023-02-05T15:38:17.399Z",
  "networkType": "ethereum",
  "devdoc": {
    "kind": "dev",
    "methods": {},
    "version": 1
  },
  "userdoc": {
    "kind": "user",
    "methods": {},
    "version": 1
  }
}