{
  "contractName": "project",
  "abi": [
    {
      "inputs": [
        {
          "internalType": "string",
          "name": "_projectId",
          "type": "string"
        },
        {
          "internalType": "uint256[]",
          "name": "_milestone",
          "type": "uint256[]"
        },
        {
          "internalType": "address payable",
          "name": "_company",
          "type": "address"
        }
      ],
      "stateMutability": "payable",
      "type": "constructor"
    },
    {
      "anonymous": false,
      "inputs": [],
      "name": "Claim",
      "type": "event"
    },
    {
      "anonymous": false,
      "inputs": [
        {
          "indexed": true,
          "internalType": "address",
          "name": "caller",
          "type": "address"
        },
        {
          "indexed": false,
          "internalType": "uint256",
          "name": "amount",
          "type": "uint256"
        }
      ],
      "name": "Pledge",
      "type": "event"
    },
    {
      "anonymous": false,
      "inputs": [
        {
          "indexed": true,
          "internalType": "address",
          "name": "target",
          "type": "address"
        },
        {
          "indexed": false,
          "internalType": "uint256",
          "name": "amount",
          "type": "uint256"
        }
      ],
      "name": "Unpledge",
      "type": "event"
    },
    {
      "inputs": [
        {
          "internalType": "uint256",
          "name": "",
          "type": "uint256"
        },
        {
          "internalType": "uint256",
          "name": "",
          "type": "uint256"
        }
      ],
      "name": "proofs",
      "outputs": [
        {
          "internalType": "uint256",
          "name": "id",
          "type": "uint256"
        },
        {
          "internalType": "string",
          "name": "signature",
          "type": "string"
        }
      ],
      "stateMutability": "view",
      "type": "function"
    },
    {
      "inputs": [
        {
          "internalType": "uint256",
          "name": "_amount",
          "type": "uint256"
        }
      ],
      "name": "pledge",
      "outputs": [],
      "stateMutability": "payable",
      "type": "function"
    },
    {
      "inputs": [
        {
          "internalType": "address payable",
          "name": "backer",
          "type": "address"
        },
        {
          "internalType": "uint256",
          "name": "_amount",
          "type": "uint256"
        }
      ],
      "name": "unpledge",
      "outputs": [],
      "stateMutability": "nonpayable",
      "type": "function"
    },
    {
      "inputs": [],
      "name": "getPledged",
      "outputs": [
        {
          "internalType": "uint256",
          "name": "",
          "type": "uint256"
        }
      ],
      "stateMutability": "view",
      "type": "function"
    },
    {
      "inputs": [],
      "name": "getBalance",
      "outputs": [
        {
          "internalType": "uint256",
          "name": "",
          "type": "uint256"
        }
      ],
      "stateMutability": "view",
      "type": "function"
    },
    {
      "inputs": [
        {
          "internalType": "uint256",
          "name": "milestoneseq",
          "type": "uint256"
        }
      ],
      "name": "claim",
      "outputs": [],
      "stateMutability": "nonpayable",
      "type": "function"
    },
    {
      "inputs": [
        {
          "internalType": "uint256",
          "name": "milestoneseq",
          "type": "uint256"
        },
        {
          "components": [
            {
              "internalType": "uint256",
              "name": "id",
              "type": "uint256"
            },
            {
              "internalType": "string",
              "name": "signature",
              "type": "string"
            }
          ],
          "internalType": "struct project.proof[]",
          "name": "_proof",
          "type": "tuple[]"
        }
      ],
      "name": "uploadProof",
      "outputs": [],
      "stateMutability": "nonpayable",
      "type": "function"
    }
  ],
  "bytecode": "0x6080604052604051620017f7380380620017f7833981810160405281019062000029919062000463565b82600090816200003a91906200073e565b506000600190505b825181116200010a5760405180604001604052808460018462000066919062000854565b815181106200007a57620000796200088f565b5b60200260200101518152602001600260038111156200009e576200009d620008be565b5b815250600460008381526020019081526020016000206000820151816000015560208201518160010160006101000a81548160ff02191690836003811115620000ec57620000eb620008be565b5b021790555090505080806200010190620008ed565b91505062000042565b5080600160006101000a81548173ffffffffffffffffffffffffffffffffffffffff021916908373ffffffffffffffffffffffffffffffffffffffff1602179055505050506200093a565b6000604051905090565b600080fd5b600080fd5b600080fd5b600080fd5b6000601f19601f8301169050919050565b7f4e487b7100000000000000000000000000000000000000000000000000000000600052604160045260246000fd5b620001be8262000173565b810181811067ffffffffffffffff82111715620001e057620001df62000184565b5b80604052505050565b6000620001f562000155565b9050620002038282620001b3565b919050565b600067ffffffffffffffff82111562000226576200022562000184565b5b620002318262000173565b9050602081019050919050565b60005b838110156200025e57808201518184015260208101905062000241565b60008484015250505050565b6000620002816200027b8462000208565b620001e9565b905082815260208101848484011115620002a0576200029f6200016e565b5b620002ad8482856200023e565b509392505050565b600082601f830112620002cd57620002cc62000169565b5b8151620002df8482602086016200026a565b91505092915050565b600067ffffffffffffffff82111562000306576200030562000184565b5b602082029050602081019050919050565b600080fd5b6000819050919050565b62000331816200031c565b81146200033d57600080fd5b50565b600081519050620003518162000326565b92915050565b60006200036e6200036884620002e8565b620001e9565b9050808382526020820190506020840283018581111562000394576200039362000317565b5b835b81811015620003c15780620003ac888262000340565b84526020840193505060208101905062000396565b5050509392505050565b600082601f830112620003e357620003e262000169565b5b8151620003f584826020860162000357565b91505092915050565b600073ffffffffffffffffffffffffffffffffffffffff82169050919050565b60006200042b82620003fe565b9050919050565b6200043d816200041e565b81146200044957600080fd5b50565b6000815190506200045d8162000432565b92915050565b6000806000606084860312156200047f576200047e6200015f565b5b600084015167ffffffffffffffff811115620004a0576200049f62000164565b5b620004ae86828701620002b5565b935050602084015167ffffffffffffffff811115620004d257620004d162000164565b5b620004e086828701620003cb565b9250506040620004f3868287016200044c565b9150509250925092565b600081519050919050565b7f4e487b7100000000000000000000000000000000000000000000000000000000600052602260045260246000fd5b600060028204905060018216806200055057607f821691505b60208210810362000566576200056562000508565b5b50919050565b60008190508160005260206000209050919050565b60006020601f8301049050919050565b600082821b905092915050565b600060088302620005d07fffffffffffffffffffffffffffffffffffffffffffffffffffffffffffffffff8262000591565b620005dc868362000591565b95508019841693508086168417925050509392505050565b6000819050919050565b60006200061f6200061962000613846200031c565b620005f4565b6200031c565b9050919050565b6000819050919050565b6200063b83620005fe565b620006536200064a8262000626565b8484546200059e565b825550505050565b600090565b6200066a6200065b565b6200067781848462000630565b505050565b5b818110156200069f576200069360008262000660565b6001810190506200067d565b5050565b601f821115620006ee57620006b8816200056c565b620006c38462000581565b81016020851015620006d3578190505b620006eb620006e28562000581565b8301826200067c565b50505b505050565b600082821c905092915050565b60006200071360001984600802620006f3565b1980831691505092915050565b60006200072e838362000700565b9150826002028217905092915050565b6200074982620004fd565b67ffffffffffffffff81111562000765576200076462000184565b5b62000771825462000537565b6200077e828285620006a3565b600060209050601f831160018114620007b65760008415620007a1578287015190505b620007ad858262000720565b8655506200081d565b601f198416620007c6866200056c565b60005b82811015620007f057848901518255600182019150602085019450602081019050620007c9565b868310156200081057848901516200080c601f89168262000700565b8355505b6001600288020188555050505b505050505050565b7f4e487b7100000000000000000000000000000000000000000000000000000000600052601160045260246000fd5b600062000861826200031c565b91506200086e836200031c565b925082820390508181111562000889576200088862000825565b5b92915050565b7f4e487b7100000000000000000000000000000000000000000000000000000000600052603260045260246000fd5b7f4e487b7100000000000000000000000000000000000000000000000000000000600052602160045260246000fd5b6000620008fa826200031c565b91507fffffffffffffffffffffffffffffffffffffffffffffffffffffffffffffffff82036200092f576200092e62000825565b5b600182019050919050565b610ead806200094a6000396000f3fe6080604052600436106100705760003560e01c8063597c55221161004e578063597c5522146100f45780635ef779491461011d5780637326c9c01461015b578063c48399751461017757610070565b806312065fe01461007557806328c2cd40146100a0578063379607f5146100cb575b600080fd5b34801561008157600080fd5b5061008a6101a0565b6040516100979190610549565b60405180910390f35b3480156100ac57600080fd5b506100b56101a8565b6040516100c29190610549565b60405180910390f35b3480156100d757600080fd5b506100f260048036038101906100ed91906105a4565b6101b2565b005b34801561010057600080fd5b5061011b60048036038101906101169190610873565b610260565b005b34801561012957600080fd5b50610144600480360381019061013f91906108cf565b61034b565b60405161015292919061098e565b60405180910390f35b610175600480360381019061017091906105a4565b610414565b005b34801561018357600080fd5b5061019e60048036038101906101999190610a1c565b61047e565b005b600047905090565b6000600354905090565b600160009054906101000a900473ffffffffffffffffffffffffffffffffffffffff1673ffffffffffffffffffffffffffffffffffffffff166108fc60046000848152602001908152602001600020600001549081150290604051600060405180830381858888f19350505050158015610230573d6000803e3d6000fd5b507f3158952e7c791deb52750003dbcb0fb942106f2bcd1005fb946a83cd6646fdc460405160405180910390a150565b6000600190505b815181116103075760056000848152602001908152602001600020826001836102909190610a8b565b815181106102a1576102a0610abf565b5b602002602001015190806001815401808255809150506001900390600052602060002090600202016000909190919091506000820151816000015560208201518160010190816102f19190610cfa565b50505080806102ff90610dcc565b915050610267565b5060006004600084815260200190815260200160002060010160006101000a81548160ff0219169083600381111561034257610341610e14565b5b02179055505050565b6005602052816000526040600020818154811061036757600080fd5b90600052602060002090600202016000915091505080600001549080600101805461039190610b1d565b80601f01602080910402602001604051908101604052809291908181526020018280546103bd90610b1d565b801561040a5780601f106103df5761010080835404028352916020019161040a565b820191906000526020600020905b8154815290600101906020018083116103ed57829003601f168201915b5050505050905082565b80600360008282546104269190610e43565b925050819055503373ffffffffffffffffffffffffffffffffffffffff167f5e91ea8ea1c46300eb761859be01d7b16d44389ef91e03a163a87413cbf55b95346040516104739190610549565b60405180910390a250565b80600360008282546104909190610a8b565b925050819055508173ffffffffffffffffffffffffffffffffffffffff166108fc829081150290604051600060405180830381858888f193505050501580156104dd573d6000803e3d6000fd5b508173ffffffffffffffffffffffffffffffffffffffff167f0cdb7e259318c69f16c8770399e09f5531befac5033bf7c447e3bc2961169295826040516105249190610549565b60405180910390a25050565b6000819050919050565b61054381610530565b82525050565b600060208201905061055e600083018461053a565b92915050565b6000604051905090565b600080fd5b600080fd5b61058181610530565b811461058c57600080fd5b50565b60008135905061059e81610578565b92915050565b6000602082840312156105ba576105b961056e565b5b60006105c88482850161058f565b91505092915050565b600080fd5b6000601f19601f8301169050919050565b7f4e487b7100000000000000000000000000000000000000000000000000000000600052604160045260246000fd5b61061f826105d6565b810181811067ffffffffffffffff8211171561063e5761063d6105e7565b5b80604052505050565b6000610651610564565b905061065d8282610616565b919050565b600067ffffffffffffffff82111561067d5761067c6105e7565b5b602082029050602081019050919050565b600080fd5b600080fd5b600080fd5b600080fd5b600067ffffffffffffffff8211156106bd576106bc6105e7565b5b6106c6826105d6565b9050602081019050919050565b82818337600083830152505050565b60006106f56106f0846106a2565b610647565b9050828152602081018484840111156107115761071061069d565b5b61071c8482856106d3565b509392505050565b600082601f830112610739576107386105d1565b5b81356107498482602086016106e2565b91505092915050565b60006040828403121561076857610767610693565b5b6107726040610647565b905060006107828482850161058f565b600083015250602082013567ffffffffffffffff8111156107a6576107a5610698565b5b6107b284828501610724565b60208301525092915050565b60006107d16107cc84610662565b610647565b905080838252602082019050602084028301858111156107f4576107f361068e565b5b835b8181101561083b57803567ffffffffffffffff811115610819576108186105d1565b5b8086016108268982610752565b855260208501945050506020810190506107f6565b5050509392505050565b600082601f83011261085a576108596105d1565b5b813561086a8482602086016107be565b91505092915050565b6000806040838503121561088a5761088961056e565b5b60006108988582860161058f565b925050602083013567ffffffffffffffff8111156108b9576108b8610573565b5b6108c585828601610845565b9150509250929050565b600080604083850312156108e6576108e561056e565b5b60006108f48582860161058f565b92505060206109058582860161058f565b9150509250929050565b600081519050919050565b600082825260208201905092915050565b60005b8381101561094957808201518184015260208101905061092e565b60008484015250505050565b60006109608261090f565b61096a818561091a565b935061097a81856020860161092b565b610983816105d6565b840191505092915050565b60006040820190506109a3600083018561053a565b81810360208301526109b58184610955565b90509392505050565b600073ffffffffffffffffffffffffffffffffffffffff82169050919050565b60006109e9826109be565b9050919050565b6109f9816109de565b8114610a0457600080fd5b50565b600081359050610a16816109f0565b92915050565b60008060408385031215610a3357610a3261056e565b5b6000610a4185828601610a07565b9250506020610a528582860161058f565b9150509250929050565b7f4e487b7100000000000000000000000000000000000000000000000000000000600052601160045260246000fd5b6000610a9682610530565b9150610aa183610530565b9250828203905081811115610ab957610ab8610a5c565b5b92915050565b7f4e487b7100000000000000000000000000000000000000000000000000000000600052603260045260246000fd5b7f4e487b7100000000000000000000000000000000000000000000000000000000600052602260045260246000fd5b60006002820490506001821680610b3557607f821691505b602082108103610b4857610b47610aee565b5b50919050565b60008190508160005260206000209050919050565b60006020601f8301049050919050565b600082821b905092915050565b600060088302610bb07fffffffffffffffffffffffffffffffffffffffffffffffffffffffffffffffff82610b73565b610bba8683610b73565b95508019841693508086168417925050509392505050565b6000819050919050565b6000610bf7610bf2610bed84610530565b610bd2565b610530565b9050919050565b6000819050919050565b610c1183610bdc565b610c25610c1d82610bfe565b848454610b80565b825550505050565b600090565b610c3a610c2d565b610c45818484610c08565b505050565b5b81811015610c6957610c5e600082610c32565b600181019050610c4b565b5050565b601f821115610cae57610c7f81610b4e565b610c8884610b63565b81016020851015610c97578190505b610cab610ca385610b63565b830182610c4a565b50505b505050565b600082821c905092915050565b6000610cd160001984600802610cb3565b1980831691505092915050565b6000610cea8383610cc0565b9150826002028217905092915050565b610d038261090f565b67ffffffffffffffff811115610d1c57610d1b6105e7565b5b610d268254610b1d565b610d31828285610c6d565b600060209050601f831160018114610d645760008415610d52578287015190505b610d5c8582610cde565b865550610dc4565b601f198416610d7286610b4e565b60005b82811015610d9a57848901518255600182019150602085019450602081019050610d75565b86831015610db75784890151610db3601f891682610cc0565b8355505b6001600288020188555050505b505050505050565b6000610dd782610530565b91507fffffffffffffffffffffffffffffffffffffffffffffffffffffffffffffffff8203610e0957610e08610a5c565b5b600182019050919050565b7f4e487b7100000000000000000000000000000000000000000000000000000000600052602160045260246000fd5b6000610e4e82610530565b9150610e5983610530565b9250828201905080821115610e7157610e70610a5c565b5b9291505056fea26469706673582212202d32b4a5f54e168e074bd09a49ae3e5651d15cd08413a610cdfe49cf7b2a778c64736f6c63430008110033",
  "immutableReferences": {},
  "source": "// SPDX-License-Identifier: MIT\r\npragma solidity >=0.4.22 <0.9.0;\r\n\r\ncontract project{\r\n    event Pledge(address indexed caller, uint amount);\r\n    event Unpledge(address indexed target, uint amount);\r\n    event Claim();\r\n    enum State {completed, approved, notCompleted, notApproved}\r\n    //State state;\r\n    string projectId;\r\n    address payable company;\r\n    uint goal;\r\n    uint pledged;\r\n    struct proof{\r\n        uint id;\r\n        string signature;\r\n    }\r\n    //Ori\r\n    /*struct milestone{\r\n        uint seq;\r\n        uint amount;\r\n    }*/\r\n    //mapping(uint => milestone) milestones;\r\n    struct milestone{\r\n        uint amount;\r\n        State state;\r\n    }\r\n    mapping(uint => milestone) milestones;\r\n    mapping(uint => proof[]) public proofs;\r\n\r\n    //Ori\r\n    /*constructor (string memory _projectId, milestone[] memory _milestone, address payable _company) payable{\r\n        //fundAmount = msg.value;\r\n        projectId = _projectId;\r\n        for (uint i = 1; i <= _milestone.length; i++) {\r\n            milestones[i] = _milestone[i-1];\r\n        }\r\n        company = _company;\r\n        //backer = _backer;\r\n    }*/\r\n\r\n    constructor (string memory _projectId, uint[] memory _milestone, address payable _company) payable{\r\n        //fundAmount = msg.value;\r\n        projectId = _projectId;\r\n        for (uint i = 1; i <= _milestone.length; i++) {\r\n            milestones[i] = milestone(_milestone[i-1], State.notCompleted);\r\n        }\r\n        company = _company;\r\n        //backer = _backer;\r\n    }\r\n\r\n    function pledge(uint _amount) external payable {\r\n        //pledgedAmount[_id][msg.sender] += _amount;\r\n        // transfer fund to smart contract\r\n        pledged += _amount;\r\n        emit Pledge(msg.sender, msg.value);\r\n    }\r\n\r\n    function unpledge(address payable backer, uint _amount) external {\r\n\r\n        pledged -= _amount;\r\n        backer.transfer(_amount);\r\n\r\n        emit Unpledge(backer, _amount);\r\n    }\r\n\r\n    function getPledged() public view returns (uint){\r\n        return pledged;\r\n    }\r\n\r\n    function getBalance() public view returns (uint){\r\n        return address(this).balance;\r\n    }\r\n\r\n    function claim(uint milestoneseq) external {\r\n        company.transfer(milestones[milestoneseq].amount);\r\n\r\n        emit Claim();\r\n    }\r\n\r\n    /*function uploadProof(string memory _proofId) public{\r\n        proofId = _proofId;\r\n        state = State.completed;\r\n    }*/\r\n\r\n    function uploadProof(uint milestoneseq, proof[] memory _proof) public{\r\n        for (uint i = 1; i <= _proof.length; i++) {\r\n            proofs[milestoneseq].push(_proof[i-1]);\r\n        }\r\n        milestones[milestoneseq].state = State.completed;\r\n    }\r\n\r\n    /*function verifyProof(bool isApproved) public{\r\n        if(isApproved){ \r\n            state = State.approved;\r\n            releaseFund();\r\n        } else {\r\n            state = State.notApproved;\r\n            //returnFund();\r\n        }\r\n    }*/\r\n\r\n    /*function releaseFund() public payable{\r\n        require(state == State.approved,\"Proof is not approved\");\r\n        company.transfer(balance);\r\n    }\r\n\r\n    function returnFund(address payable backer) public payable{\r\n        require(state == State.notApproved,\"It does not meet the requirement to return fund\");\r\n        backer.transfer(balance);\r\n    }*/\r\n}\r\n",
  "sourcePath": "D:\\Documents\\CAT403 blockchain-based crowdfunding platform\\server\\contract\\contracts\\project.sol",
  "compiler": {
    "name": "solc",
    "version": "0.8.17+commit.8df45f5f.Emscripten.clang"
  },
  "schemaVersion": "3.4.11",
  "updatedAt": "2023-04-04T13:16:11.846Z",
  "devdoc": {
    "kind": "dev",
    "methods": {},
    "version": 1
  },
  "userdoc": {
    "kind": "user",
    "methods": {},
    "version": 1
  }
}