{
  "contractName": "project",
  "abi": [
    {
      "inputs": [
        {
          "internalType": "string",
          "name": "_projectId",
          "type": "string"
        },
        {
          "internalType": "uint256[]",
          "name": "_milestone",
          "type": "uint256[]"
        },
        {
          "internalType": "address payable",
          "name": "_company",
          "type": "address"
        }
      ],
      "stateMutability": "payable",
      "type": "constructor"
    },
    {
      "anonymous": false,
      "inputs": [],
      "name": "Claim",
      "type": "event"
    },
    {
      "anonymous": false,
      "inputs": [
        {
          "indexed": true,
          "internalType": "address",
          "name": "caller",
          "type": "address"
        },
        {
          "indexed": false,
          "internalType": "uint256",
          "name": "amount",
          "type": "uint256"
        }
      ],
      "name": "Pledge",
      "type": "event"
    },
    {
      "anonymous": false,
      "inputs": [
        {
          "indexed": true,
          "internalType": "address",
          "name": "target",
          "type": "address"
        },
        {
          "indexed": false,
          "internalType": "uint256",
          "name": "amount",
          "type": "uint256"
        }
      ],
      "name": "Transfer",
      "type": "event"
    },
    {
      "anonymous": false,
      "inputs": [
        {
          "indexed": true,
          "internalType": "address",
          "name": "target",
          "type": "address"
        },
        {
          "indexed": false,
          "internalType": "uint256",
          "name": "amount",
          "type": "uint256"
        }
      ],
      "name": "Unpledge",
      "type": "event"
    },
    {
      "inputs": [
        {
          "internalType": "uint256",
          "name": "",
          "type": "uint256"
        }
      ],
      "name": "proofs",
      "outputs": [
        {
          "internalType": "string",
          "name": "",
          "type": "string"
        }
      ],
      "stateMutability": "view",
      "type": "function"
    },
    {
      "stateMutability": "payable",
      "type": "receive"
    },
    {
      "inputs": [
        {
          "internalType": "uint256",
          "name": "_amount",
          "type": "uint256"
        }
      ],
      "name": "pledge",
      "outputs": [],
      "stateMutability": "payable",
      "type": "function"
    },
    {
      "inputs": [
        {
          "internalType": "address payable",
          "name": "backer",
          "type": "address"
        },
        {
          "internalType": "uint256",
          "name": "_amount",
          "type": "uint256"
        }
      ],
      "name": "unpledge",
      "outputs": [],
      "stateMutability": "nonpayable",
      "type": "function"
    },
    {
      "inputs": [
        {
          "internalType": "address payable",
          "name": "backer",
          "type": "address"
        },
        {
          "internalType": "uint256",
          "name": "_amount",
          "type": "uint256"
        }
      ],
      "name": "transferFund",
      "outputs": [],
      "stateMutability": "nonpayable",
      "type": "function"
    },
    {
      "inputs": [],
      "name": "getPledged",
      "outputs": [
        {
          "internalType": "uint256",
          "name": "",
          "type": "uint256"
        }
      ],
      "stateMutability": "view",
      "type": "function"
    },
    {
      "inputs": [],
      "name": "getBalance",
      "outputs": [
        {
          "internalType": "uint256",
          "name": "",
          "type": "uint256"
        }
      ],
      "stateMutability": "view",
      "type": "function"
    },
    {
      "inputs": [
        {
          "internalType": "uint256",
          "name": "seq",
          "type": "uint256"
        }
      ],
      "name": "getProof",
      "outputs": [
        {
          "internalType": "string",
          "name": "",
          "type": "string"
        }
      ],
      "stateMutability": "view",
      "type": "function"
    },
    {
      "inputs": [
        {
          "internalType": "string",
          "name": "_proof",
          "type": "string"
        },
        {
          "internalType": "uint256",
          "name": "seq",
          "type": "uint256"
        }
      ],
      "name": "compareProof",
      "outputs": [
        {
          "internalType": "bool",
          "name": "",
          "type": "bool"
        }
      ],
      "stateMutability": "view",
      "type": "function"
    },
    {
      "inputs": [
        {
          "internalType": "uint256",
          "name": "seq",
          "type": "uint256"
        }
      ],
      "name": "getResponse",
      "outputs": [
        {
          "internalType": "string",
          "name": "",
          "type": "string"
        }
      ],
      "stateMutability": "view",
      "type": "function"
    },
    {
      "inputs": [
        {
          "internalType": "uint256",
          "name": "milestoneseq",
          "type": "uint256"
        }
      ],
      "name": "claim",
      "outputs": [],
      "stateMutability": "nonpayable",
      "type": "function"
    },
    {
      "inputs": [
        {
          "internalType": "uint256",
          "name": "milestoneseq",
          "type": "uint256"
        },
        {
          "internalType": "string",
          "name": "_proof",
          "type": "string"
        }
      ],
      "name": "uploadProof",
      "outputs": [],
      "stateMutability": "nonpayable",
      "type": "function"
    },
    {
      "inputs": [
        {
          "internalType": "uint256",
          "name": "milestoneseq",
          "type": "uint256"
        },
        {
          "internalType": "string",
          "name": "_response",
          "type": "string"
        },
        {
          "internalType": "bool",
          "name": "approved",
          "type": "bool"
        }
      ],
      "name": "uploadApproval",
      "outputs": [],
      "stateMutability": "nonpayable",
      "type": "function"
    }
  ],
  "bytecode": "0x608060405260405162001c4838038062001c48833981810160405281019062000029919062000490565b82600090816200003a91906200076b565b506000600190505b82518111620001375760405180606001604052808460018462000066919062000881565b815181106200007a5762000079620008bc565b5b60200260200101518152602001600260038111156200009e576200009d620008eb565b5b815260200160405180602001604052806000815250815250600560008381526020019081526020016000206000820151816000015560208201518160010160006101000a81548160ff02191690836003811115620001015762000100620008eb565b5b021790555060408201518160020190816200011d91906200076b565b5090505080806200012e906200091a565b91505062000042565b5080600160006101000a81548173ffffffffffffffffffffffffffffffffffffffff021916908373ffffffffffffffffffffffffffffffffffffffff16021790555050505062000967565b6000604051905090565b600080fd5b600080fd5b600080fd5b600080fd5b6000601f19601f8301169050919050565b7f4e487b7100000000000000000000000000000000000000000000000000000000600052604160045260246000fd5b620001eb82620001a0565b810181811067ffffffffffffffff821117156200020d576200020c620001b1565b5b80604052505050565b60006200022262000182565b9050620002308282620001e0565b919050565b600067ffffffffffffffff821115620002535762000252620001b1565b5b6200025e82620001a0565b9050602081019050919050565b60005b838110156200028b5780820151818401526020810190506200026e565b60008484015250505050565b6000620002ae620002a88462000235565b62000216565b905082815260208101848484011115620002cd57620002cc6200019b565b5b620002da8482856200026b565b509392505050565b600082601f830112620002fa57620002f962000196565b5b81516200030c84826020860162000297565b91505092915050565b600067ffffffffffffffff821115620003335762000332620001b1565b5b602082029050602081019050919050565b600080fd5b6000819050919050565b6200035e8162000349565b81146200036a57600080fd5b50565b6000815190506200037e8162000353565b92915050565b60006200039b620003958462000315565b62000216565b90508083825260208201905060208402830185811115620003c157620003c062000344565b5b835b81811015620003ee5780620003d988826200036d565b845260208401935050602081019050620003c3565b5050509392505050565b600082601f83011262000410576200040f62000196565b5b81516200042284826020860162000384565b91505092915050565b600073ffffffffffffffffffffffffffffffffffffffff82169050919050565b600062000458826200042b565b9050919050565b6200046a816200044b565b81146200047657600080fd5b50565b6000815190506200048a816200045f565b92915050565b600080600060608486031215620004ac57620004ab6200018c565b5b600084015167ffffffffffffffff811115620004cd57620004cc62000191565b5b620004db86828701620002e2565b935050602084015167ffffffffffffffff811115620004ff57620004fe62000191565b5b6200050d86828701620003f8565b9250506040620005208682870162000479565b9150509250925092565b600081519050919050565b7f4e487b7100000000000000000000000000000000000000000000000000000000600052602260045260246000fd5b600060028204905060018216806200057d57607f821691505b60208210810362000593576200059262000535565b5b50919050565b60008190508160005260206000209050919050565b60006020601f8301049050919050565b600082821b905092915050565b600060088302620005fd7fffffffffffffffffffffffffffffffffffffffffffffffffffffffffffffffff82620005be565b620006098683620005be565b95508019841693508086168417925050509392505050565b6000819050919050565b60006200064c62000646620006408462000349565b62000621565b62000349565b9050919050565b6000819050919050565b62000668836200062b565b62000680620006778262000653565b848454620005cb565b825550505050565b600090565b6200069762000688565b620006a48184846200065d565b505050565b5b81811015620006cc57620006c06000826200068d565b600181019050620006aa565b5050565b601f8211156200071b57620006e58162000599565b620006f084620005ae565b8101602085101562000700578190505b620007186200070f85620005ae565b830182620006a9565b50505b505050565b600082821c905092915050565b6000620007406000198460080262000720565b1980831691505092915050565b60006200075b83836200072d565b9150826002028217905092915050565b62000776826200052a565b67ffffffffffffffff811115620007925762000791620001b1565b5b6200079e825462000564565b620007ab828285620006d0565b600060209050601f831160018114620007e35760008415620007ce578287015190505b620007da85826200074d565b8655506200084a565b601f198416620007f38662000599565b60005b828110156200081d57848901518255600182019150602085019450602081019050620007f6565b868310156200083d578489015162000839601f8916826200072d565b8355505b6001600288020188555050505b505050505050565b7f4e487b7100000000000000000000000000000000000000000000000000000000600052601160045260246000fd5b60006200088e8262000349565b91506200089b8362000349565b9250828203905081811115620008b657620008b562000852565b5b92915050565b7f4e487b7100000000000000000000000000000000000000000000000000000000600052603260045260246000fd5b7f4e487b7100000000000000000000000000000000000000000000000000000000600052602160045260246000fd5b6000620009278262000349565b91507fffffffffffffffffffffffffffffffffffffffffffffffffffffffffffffffff82036200095c576200095b62000852565b5b600182019050919050565b6112d180620009776000396000f3fe6080604052600436106100ab5760003560e01c80637326c9c0116100645780637326c9c0146102405780639ddaf5aa1461025c5780639f0fa88c14610299578063c4839975146102d6578063e2dc35e0146102ff578063fc0990fe1461032857610119565b806303e17ee01461011e57806311149ada1461014757806312065fe01461018457806328c2cd40146101af578063379607f5146101da57806370c181991461020357610119565b366101195734600360008282546100c29190610994565b925050819055503373ffffffffffffffffffffffffffffffffffffffff167f5e91ea8ea1c46300eb761859be01d7b16d44389ef91e03a163a87413cbf55b953460405161010f91906109d7565b60405180910390a2005b600080fd5b34801561012a57600080fd5b5061014560048036038101906101409190610bb0565b610351565b005b34801561015357600080fd5b5061016e60048036038101906101699190610c1f565b610404565b60405161017b9190610ccb565b60405180910390f35b34801561019057600080fd5b506101996104a9565b6040516101a691906109d7565b60405180910390f35b3480156101bb57600080fd5b506101c46104b1565b6040516101d191906109d7565b60405180910390f35b3480156101e657600080fd5b5061020160048036038101906101fc9190610c1f565b6104bb565b005b34801561020f57600080fd5b5061022a60048036038101906102259190610c1f565b610569565b6040516102379190610ccb565b60405180910390f35b61025a60048036038101906102559190610c1f565b610611565b005b34801561026857600080fd5b50610283600480360381019061027e9190610c1f565b61067b565b6040516102909190610ccb565b60405180910390f35b3480156102a557600080fd5b506102c060048036038101906102bb9190610ced565b61071b565b6040516102cd9190610d58565b60405180910390f35b3480156102e257600080fd5b506102fd60048036038101906102f89190610dd1565b610786565b005b34801561030b57600080fd5b5061032660048036038101906103219190610dd1565b610838565b005b34801561033457600080fd5b5061034f600480360381019061034a9190610e11565b6108f7565b005b816005600085815260200190815260200160002060020190816103749190611079565b5080156103bf5760016005600085815260200190815260200160002060010160006101000a81548160ff021916908360038111156103b5576103b461114b565b5b02179055506103ff565b60036005600085815260200190815260200160002060010160006101000a81548160ff021916908360038111156103f9576103f861114b565b5b02179055505b505050565b606060066000838152602001908152602001600020805461042490610e9c565b80601f016020809104026020016040519081016040528092919081815260200182805461045090610e9c565b801561049d5780601f106104725761010080835404028352916020019161049d565b820191906000526020600020905b81548152906001019060200180831161048057829003601f168201915b50505050509050919050565b600047905090565b6000600354905090565b600160009054906101000a900473ffffffffffffffffffffffffffffffffffffffff1673ffffffffffffffffffffffffffffffffffffffff166108fc60056000848152602001908152602001600020600001549081150290604051600060405180830381858888f19350505050158015610539573d6000803e3d6000fd5b507f3158952e7c791deb52750003dbcb0fb942106f2bcd1005fb946a83cd6646fdc460405160405180910390a150565b606060056000838152602001908152602001600020600201805461058c90610e9c565b80601f01602080910402602001604051908101604052809291908181526020018280546105b890610e9c565b80156106055780601f106105da57610100808354040283529160200191610605565b820191906000526020600020905b8154815290600101906020018083116105e857829003601f168201915b50505050509050919050565b80600360008282546106239190610994565b925050819055503373ffffffffffffffffffffffffffffffffffffffff167f5e91ea8ea1c46300eb761859be01d7b16d44389ef91e03a163a87413cbf55b953460405161067091906109d7565b60405180910390a250565b6006602052806000526040600020600091509050805461069a90610e9c565b80601f01602080910402602001604051908101604052809291908181526020018280546106c690610e9c565b80156107135780601f106106e857610100808354040283529160200191610713565b820191906000526020600020905b8154815290600101906020018083116106f657829003601f168201915b505050505081565b60008260405160200161072e91906111b6565b60405160208183030381529060405280519060200120600660008481526020019081526020016000206040516020016107679190611250565b6040516020818303038152906040528051906020012014905092915050565b80600360008282546107989190611267565b925050819055508173ffffffffffffffffffffffffffffffffffffffff166108fc829081150290604051600060405180830381858888f193505050501580156107e5573d6000803e3d6000fd5b508173ffffffffffffffffffffffffffffffffffffffff167f0cdb7e259318c69f16c8770399e09f5531befac5033bf7c447e3bc29611692958260405161082c91906109d7565b60405180910390a25050565b8047101561084557600080fd5b80600360008282546108579190611267565b925050819055508173ffffffffffffffffffffffffffffffffffffffff166108fc829081150290604051600060405180830381858888f193505050501580156108a4573d6000803e3d6000fd5b508173ffffffffffffffffffffffffffffffffffffffff167f69ca02dd4edd7bf0a4abb9ed3b7af3f14778db5d61921c7dc7cd545266326de2826040516108eb91906109d7565b60405180910390a25050565b806006600084815260200190815260200160002090816109179190611079565b5060006005600084815260200190815260200160002060010160006101000a81548160ff021916908360038111156109525761095161114b565b5b02179055505050565b6000819050919050565b7f4e487b7100000000000000000000000000000000000000000000000000000000600052601160045260246000fd5b600061099f8261095b565b91506109aa8361095b565b92508282019050808211156109c2576109c1610965565b5b92915050565b6109d18161095b565b82525050565b60006020820190506109ec60008301846109c8565b92915050565b6000604051905090565b600080fd5b600080fd5b610a0f8161095b565b8114610a1a57600080fd5b50565b600081359050610a2c81610a06565b92915050565b600080fd5b600080fd5b6000601f19601f8301169050919050565b7f4e487b7100000000000000000000000000000000000000000000000000000000600052604160045260246000fd5b610a8582610a3c565b810181811067ffffffffffffffff82111715610aa457610aa3610a4d565b5b80604052505050565b6000610ab76109f2565b9050610ac38282610a7c565b919050565b600067ffffffffffffffff821115610ae357610ae2610a4d565b5b610aec82610a3c565b9050602081019050919050565b82818337600083830152505050565b6000610b1b610b1684610ac8565b610aad565b905082815260208101848484011115610b3757610b36610a37565b5b610b42848285610af9565b509392505050565b600082601f830112610b5f57610b5e610a32565b5b8135610b6f848260208601610b08565b91505092915050565b60008115159050919050565b610b8d81610b78565b8114610b9857600080fd5b50565b600081359050610baa81610b84565b92915050565b600080600060608486031215610bc957610bc86109fc565b5b6000610bd786828701610a1d565b935050602084013567ffffffffffffffff811115610bf857610bf7610a01565b5b610c0486828701610b4a565b9250506040610c1586828701610b9b565b9150509250925092565b600060208284031215610c3557610c346109fc565b5b6000610c4384828501610a1d565b91505092915050565b600081519050919050565b600082825260208201905092915050565b60005b83811015610c86578082015181840152602081019050610c6b565b60008484015250505050565b6000610c9d82610c4c565b610ca78185610c57565b9350610cb7818560208601610c68565b610cc081610a3c565b840191505092915050565b60006020820190508181036000830152610ce58184610c92565b905092915050565b60008060408385031215610d0457610d036109fc565b5b600083013567ffffffffffffffff811115610d2257610d21610a01565b5b610d2e85828601610b4a565b9250506020610d3f85828601610a1d565b9150509250929050565b610d5281610b78565b82525050565b6000602082019050610d6d6000830184610d49565b92915050565b600073ffffffffffffffffffffffffffffffffffffffff82169050919050565b6000610d9e82610d73565b9050919050565b610dae81610d93565b8114610db957600080fd5b50565b600081359050610dcb81610da5565b92915050565b60008060408385031215610de857610de76109fc565b5b6000610df685828601610dbc565b9250506020610e0785828601610a1d565b9150509250929050565b60008060408385031215610e2857610e276109fc565b5b6000610e3685828601610a1d565b925050602083013567ffffffffffffffff811115610e5757610e56610a01565b5b610e6385828601610b4a565b9150509250929050565b7f4e487b7100000000000000000000000000000000000000000000000000000000600052602260045260246000fd5b60006002820490506001821680610eb457607f821691505b602082108103610ec757610ec6610e6d565b5b50919050565b60008190508160005260206000209050919050565b60006020601f8301049050919050565b600082821b905092915050565b600060088302610f2f7fffffffffffffffffffffffffffffffffffffffffffffffffffffffffffffffff82610ef2565b610f398683610ef2565b95508019841693508086168417925050509392505050565b6000819050919050565b6000610f76610f71610f6c8461095b565b610f51565b61095b565b9050919050565b6000819050919050565b610f9083610f5b565b610fa4610f9c82610f7d565b848454610eff565b825550505050565b600090565b610fb9610fac565b610fc4818484610f87565b505050565b5b81811015610fe857610fdd600082610fb1565b600181019050610fca565b5050565b601f82111561102d57610ffe81610ecd565b61100784610ee2565b81016020851015611016578190505b61102a61102285610ee2565b830182610fc9565b50505b505050565b600082821c905092915050565b600061105060001984600802611032565b1980831691505092915050565b6000611069838361103f565b9150826002028217905092915050565b61108282610c4c565b67ffffffffffffffff81111561109b5761109a610a4d565b5b6110a58254610e9c565b6110b0828285610fec565b600060209050601f8311600181146110e357600084156110d1578287015190505b6110db858261105d565b865550611143565b601f1984166110f186610ecd565b60005b82811015611119578489015182556001820191506020850194506020810190506110f4565b868310156111365784890151611132601f89168261103f565b8355505b6001600288020188555050505b505050505050565b7f4e487b7100000000000000000000000000000000000000000000000000000000600052602160045260246000fd5b600081905092915050565b600061119082610c4c565b61119a818561117a565b93506111aa818560208601610c68565b80840191505092915050565b60006111c28284611185565b915081905092915050565b600081546111da81610e9c565b6111e4818661117a565b945060018216600081146111ff576001811461121457611247565b60ff1983168652811515820286019350611247565b61121d85610ecd565b60005b8381101561123f57815481890152600182019150602081019050611220565b838801955050505b50505092915050565b600061125c82846111cd565b915081905092915050565b60006112728261095b565b915061127d8361095b565b925082820390508181111561129557611294610965565b5b9291505056fea2646970667358221220401d34bd2a72e6b53554ce09d01f08816199614979a74a4a586f84ec3b6ca81164736f6c63430008110033",
  "immutableReferences": {},
  "source": "// SPDX-License-Identifier: MIT\r\npragma solidity >=0.4.22 <0.9.0;\r\n\r\ncontract project{\r\n    event Pledge(address indexed caller, uint amount);\r\n    event Unpledge(address indexed target, uint amount);\r\n    event Transfer(address indexed target, uint amount);\r\n    event Claim();\r\n    enum State {completed, approved, notCompleted, notApproved}\r\n    //State state;\r\n    string projectId;\r\n    address payable company;\r\n    uint goal;\r\n    uint pledged;\r\n    /*struct proof{\r\n        string id;\r\n        string signature;\r\n    }*/\r\n    string imagehash;\r\n    //Ori\r\n    /*struct milestone{\r\n        uint seq;\r\n        uint amount;\r\n    }*/\r\n    //mapping(uint => milestone) milestones;\r\n    struct milestone{\r\n        uint amount;\r\n        State state;\r\n        string response;\r\n    }\r\n    mapping(uint => milestone) milestones;\r\n    mapping(uint => string) public proofs;\r\n\r\n    //Ori\r\n    /*constructor (string memory _projectId, milestone[] memory _milestone, address payable _company) payable{\r\n        //fundAmount = msg.value;\r\n        projectId = _projectId;\r\n        for (uint i = 1; i <= _milestone.length; i++) {\r\n            milestones[i] = _milestone[i-1];\r\n        }\r\n        company = _company;\r\n        //backer = _backer;\r\n    }*/\r\n\r\n    constructor (string memory _projectId, uint[] memory _milestone, address payable _company) payable{\r\n        //fundAmount = msg.value;\r\n        projectId = _projectId;\r\n        for (uint i = 1; i <= _milestone.length; i++) {\r\n            milestones[i] = milestone(_milestone[i-1], State.notCompleted, \"\");\r\n        }\r\n        company = _company;\r\n        //backer = _backer;\r\n    }\r\n\r\n    receive() external payable {\r\n        pledged += msg.value;\r\n        emit Pledge(msg.sender, msg.value);\r\n    }\r\n\r\n    function pledge(uint _amount) external payable {\r\n        //pledgedAmount[_id][msg.sender] += _amount;\r\n        // transfer fund to smart contract\r\n        pledged += _amount;\r\n        emit Pledge(msg.sender, msg.value);\r\n    }\r\n\r\n    function unpledge(address payable backer, uint _amount) external {\r\n\r\n        pledged -= _amount;\r\n        backer.transfer(_amount);\r\n\r\n        emit Unpledge(backer, _amount);\r\n    }\r\n\r\n    function transferFund(address payable backer, uint _amount) external {\r\n        require(address(this).balance >= _amount);\r\n        pledged -= _amount;\r\n        backer.transfer(_amount);\r\n\r\n        emit Transfer(backer, _amount);\r\n    }\r\n\r\n    function getPledged() public view returns (uint){\r\n        return pledged;\r\n    }\r\n\r\n    function getBalance() public view returns (uint){\r\n        return address(this).balance;\r\n    }\r\n\r\n    function getProof(uint seq) public view returns (string memory){\r\n        return proofs[seq];\r\n    }\r\n\r\n    function compareProof(string memory _proof, uint seq) public view returns (bool){\r\n        return keccak256(abi.encodePacked(proofs[seq])) == keccak256(abi.encodePacked(_proof));\r\n    }\r\n\r\n    function getResponse(uint seq) public view returns (string memory){\r\n        return milestones[seq].response;\r\n    }\r\n\r\n    function claim(uint milestoneseq) external {\r\n        company.transfer(milestones[milestoneseq].amount);\r\n\r\n        emit Claim();\r\n    }\r\n\r\n    /*function uploadProof(string memory _proofId) public{\r\n        proofId = _proofId;\r\n        state = State.completed;\r\n    }*/\r\n\r\n    function uploadProof(uint milestoneseq, string memory _proof) public{\r\n        /*for (uint i = 1; i <= _proof.length; i++) {\r\n            proofs[milestoneseq].push(_proof[i-1]);\r\n        }*/\r\n        proofs[milestoneseq] = _proof;\r\n        milestones[milestoneseq].state = State.completed;\r\n    }\r\n\r\n    function uploadApproval(uint milestoneseq, string memory _response, bool approved) public{\r\n        /*for (uint i = 1; i <= _proof.length; i++) {\r\n            proofs[milestoneseq].push(_proof[i-1]);\r\n        }*/\r\n        milestones[milestoneseq].response = _response;\r\n        if(approved){\r\n            milestones[milestoneseq].state = State.approved;\r\n        } else {\r\n            milestones[milestoneseq].state = State.notApproved;\r\n        }\r\n    }\r\n\r\n    /*function verifyProof(bool isApproved) public{\r\n        if(isApproved){ \r\n            state = State.approved;\r\n            releaseFund();\r\n        } else {\r\n            state = State.notApproved;\r\n            //returnFund();\r\n        }\r\n    }*/\r\n\r\n    /*function releaseFund() public payable{\r\n        require(state == State.approved,\"Proof is not approved\");\r\n        company.transfer(balance);\r\n    }\r\n\r\n    function returnFund(address payable backer) public payable{\r\n        require(state == State.notApproved,\"It does not meet the requirement to return fund\");\r\n        backer.transfer(balance);\r\n    }*/\r\n}",
  "sourcePath": "D:\\Documents\\CAT403 blockchain-based crowdfunding platform\\server\\contract\\contracts\\project.sol",
  "compiler": {
    "name": "solc",
    "version": "0.8.17+commit.8df45f5f.Emscripten.clang"
  },
  "schemaVersion": "3.4.14",
  "updatedAt": "2023-06-24T17:28:48.264Z",
  "devdoc": {
    "kind": "dev",
    "methods": {},
    "version": 1
  },
  "userdoc": {
    "kind": "user",
    "methods": {},
    "version": 1
  }
}