{
  "contractName": "project",
  "abi": [
    {
      "inputs": [
        {
          "internalType": "string",
          "name": "_projectId",
          "type": "string"
        },
        {
          "internalType": "uint256[]",
          "name": "_milestone",
          "type": "uint256[]"
        },
        {
          "internalType": "address payable",
          "name": "_company",
          "type": "address"
        }
      ],
      "stateMutability": "payable",
      "type": "constructor"
    },
    {
      "anonymous": false,
      "inputs": [],
      "name": "Claim",
      "type": "event"
    },
    {
      "anonymous": false,
      "inputs": [
        {
          "indexed": true,
          "internalType": "address",
          "name": "caller",
          "type": "address"
        },
        {
          "indexed": false,
          "internalType": "uint256",
          "name": "amount",
          "type": "uint256"
        }
      ],
      "name": "Pledge",
      "type": "event"
    },
    {
      "anonymous": false,
      "inputs": [
        {
          "indexed": true,
          "internalType": "address",
          "name": "target",
          "type": "address"
        },
        {
          "indexed": false,
          "internalType": "uint256",
          "name": "amount",
          "type": "uint256"
        }
      ],
      "name": "Transfer",
      "type": "event"
    },
    {
      "anonymous": false,
      "inputs": [
        {
          "indexed": true,
          "internalType": "address",
          "name": "target",
          "type": "address"
        },
        {
          "indexed": false,
          "internalType": "uint256",
          "name": "amount",
          "type": "uint256"
        }
      ],
      "name": "Unpledge",
      "type": "event"
    },
    {
      "inputs": [
        {
          "internalType": "uint256",
          "name": "",
          "type": "uint256"
        }
      ],
      "name": "proofs",
      "outputs": [
        {
          "internalType": "string",
          "name": "",
          "type": "string"
        }
      ],
      "stateMutability": "view",
      "type": "function"
    },
    {
      "inputs": [
        {
          "internalType": "uint256",
          "name": "_amount",
          "type": "uint256"
        }
      ],
      "name": "pledge",
      "outputs": [],
      "stateMutability": "payable",
      "type": "function"
    },
    {
      "inputs": [
        {
          "internalType": "address payable",
          "name": "backer",
          "type": "address"
        },
        {
          "internalType": "uint256",
          "name": "_amount",
          "type": "uint256"
        }
      ],
      "name": "unpledge",
      "outputs": [],
      "stateMutability": "nonpayable",
      "type": "function"
    },
    {
      "inputs": [
        {
          "internalType": "address payable",
          "name": "backer",
          "type": "address"
        },
        {
          "internalType": "uint256",
          "name": "_amount",
          "type": "uint256"
        }
      ],
      "name": "transferFund",
      "outputs": [],
      "stateMutability": "nonpayable",
      "type": "function"
    },
    {
      "inputs": [],
      "name": "getPledged",
      "outputs": [
        {
          "internalType": "uint256",
          "name": "",
          "type": "uint256"
        }
      ],
      "stateMutability": "view",
      "type": "function"
    },
    {
      "inputs": [],
      "name": "getBalance",
      "outputs": [
        {
          "internalType": "uint256",
          "name": "",
          "type": "uint256"
        }
      ],
      "stateMutability": "view",
      "type": "function"
    },
    {
      "inputs": [
        {
          "internalType": "uint256",
          "name": "seq",
          "type": "uint256"
        }
      ],
      "name": "getProof",
      "outputs": [
        {
          "internalType": "string",
          "name": "",
          "type": "string"
        }
      ],
      "stateMutability": "view",
      "type": "function"
    },
    {
      "inputs": [
        {
          "internalType": "string",
          "name": "_proof",
          "type": "string"
        },
        {
          "internalType": "uint256",
          "name": "seq",
          "type": "uint256"
        }
      ],
      "name": "compareProof",
      "outputs": [
        {
          "internalType": "bool",
          "name": "",
          "type": "bool"
        }
      ],
      "stateMutability": "view",
      "type": "function"
    },
    {
      "inputs": [
        {
          "internalType": "uint256",
          "name": "milestoneseq",
          "type": "uint256"
        }
      ],
      "name": "claim",
      "outputs": [],
      "stateMutability": "nonpayable",
      "type": "function"
    },
    {
      "inputs": [
        {
          "internalType": "uint256",
          "name": "milestoneseq",
          "type": "uint256"
        },
        {
          "internalType": "string",
          "name": "_proof",
          "type": "string"
        }
      ],
      "name": "uploadProof",
      "outputs": [],
      "stateMutability": "nonpayable",
      "type": "function"
    },
    {
      "inputs": [
        {
          "internalType": "uint256",
          "name": "milestoneseq",
          "type": "uint256"
        },
        {
          "internalType": "string",
          "name": "_response",
          "type": "string"
        },
        {
          "internalType": "bool",
          "name": "approved",
          "type": "bool"
        }
      ],
      "name": "uploadApproval",
      "outputs": [],
      "stateMutability": "nonpayable",
      "type": "function"
    }
  ],
  "bytecode": "0x608060405260405162001ae638038062001ae6833981810160405281019062000029919062000490565b82600090816200003a91906200076b565b506000600190505b82518111620001375760405180606001604052808460018462000066919062000881565b815181106200007a5762000079620008bc565b5b60200260200101518152602001600260038111156200009e576200009d620008eb565b5b815260200160405180602001604052806000815250815250600560008381526020019081526020016000206000820151816000015560208201518160010160006101000a81548160ff02191690836003811115620001015762000100620008eb565b5b021790555060408201518160020190816200011d91906200076b565b5090505080806200012e906200091a565b91505062000042565b5080600160006101000a81548173ffffffffffffffffffffffffffffffffffffffff021916908373ffffffffffffffffffffffffffffffffffffffff16021790555050505062000967565b6000604051905090565b600080fd5b600080fd5b600080fd5b600080fd5b6000601f19601f8301169050919050565b7f4e487b7100000000000000000000000000000000000000000000000000000000600052604160045260246000fd5b620001eb82620001a0565b810181811067ffffffffffffffff821117156200020d576200020c620001b1565b5b80604052505050565b60006200022262000182565b9050620002308282620001e0565b919050565b600067ffffffffffffffff821115620002535762000252620001b1565b5b6200025e82620001a0565b9050602081019050919050565b60005b838110156200028b5780820151818401526020810190506200026e565b60008484015250505050565b6000620002ae620002a88462000235565b62000216565b905082815260208101848484011115620002cd57620002cc6200019b565b5b620002da8482856200026b565b509392505050565b600082601f830112620002fa57620002f962000196565b5b81516200030c84826020860162000297565b91505092915050565b600067ffffffffffffffff821115620003335762000332620001b1565b5b602082029050602081019050919050565b600080fd5b6000819050919050565b6200035e8162000349565b81146200036a57600080fd5b50565b6000815190506200037e8162000353565b92915050565b60006200039b620003958462000315565b62000216565b90508083825260208201905060208402830185811115620003c157620003c062000344565b5b835b81811015620003ee5780620003d988826200036d565b845260208401935050602081019050620003c3565b5050509392505050565b600082601f83011262000410576200040f62000196565b5b81516200042284826020860162000384565b91505092915050565b600073ffffffffffffffffffffffffffffffffffffffff82169050919050565b600062000458826200042b565b9050919050565b6200046a816200044b565b81146200047657600080fd5b50565b6000815190506200048a816200045f565b92915050565b600080600060608486031215620004ac57620004ab6200018c565b5b600084015167ffffffffffffffff811115620004cd57620004cc62000191565b5b620004db86828701620002e2565b935050602084015167ffffffffffffffff811115620004ff57620004fe62000191565b5b6200050d86828701620003f8565b9250506040620005208682870162000479565b9150509250925092565b600081519050919050565b7f4e487b7100000000000000000000000000000000000000000000000000000000600052602260045260246000fd5b600060028204905060018216806200057d57607f821691505b60208210810362000593576200059262000535565b5b50919050565b60008190508160005260206000209050919050565b60006020601f8301049050919050565b600082821b905092915050565b600060088302620005fd7fffffffffffffffffffffffffffffffffffffffffffffffffffffffffffffffff82620005be565b620006098683620005be565b95508019841693508086168417925050509392505050565b6000819050919050565b60006200064c62000646620006408462000349565b62000621565b62000349565b9050919050565b6000819050919050565b62000668836200062b565b62000680620006778262000653565b848454620005cb565b825550505050565b600090565b6200069762000688565b620006a48184846200065d565b505050565b5b81811015620006cc57620006c06000826200068d565b600181019050620006aa565b5050565b601f8211156200071b57620006e58162000599565b620006f084620005ae565b8101602085101562000700578190505b620007186200070f85620005ae565b830182620006a9565b50505b505050565b600082821c905092915050565b6000620007406000198460080262000720565b1980831691505092915050565b60006200075b83836200072d565b9150826002028217905092915050565b62000776826200052a565b67ffffffffffffffff811115620007925762000791620001b1565b5b6200079e825462000564565b620007ab828285620006d0565b600060209050601f831160018114620007e35760008415620007ce578287015190505b620007da85826200074d565b8655506200084a565b601f198416620007f38662000599565b60005b828110156200081d57848901518255600182019150602085019450602081019050620007f6565b868310156200083d578489015162000839601f8916826200072d565b8355505b6001600288020188555050505b505050505050565b7f4e487b7100000000000000000000000000000000000000000000000000000000600052601160045260246000fd5b60006200088e8262000349565b91506200089b8362000349565b9250828203905081811115620008b657620008b562000852565b5b92915050565b7f4e487b7100000000000000000000000000000000000000000000000000000000600052603260045260246000fd5b7f4e487b7100000000000000000000000000000000000000000000000000000000600052602160045260246000fd5b6000620009278262000349565b91507fffffffffffffffffffffffffffffffffffffffffffffffffffffffffffffffff82036200095c576200095b62000852565b5b600182019050919050565b61116f80620009776000396000f3fe60806040526004361061009c5760003560e01c80637326c9c0116100645780637326c9c0146101865780639ddaf5aa146101a25780639f0fa88c146101df578063c48399751461021c578063e2dc35e014610245578063fc0990fe1461026e5761009c565b806303e17ee0146100a157806311149ada146100ca57806312065fe01461010757806328c2cd4014610132578063379607f51461015d575b600080fd5b3480156100ad57600080fd5b506100c860048036038101906100c391906109c1565b610297565b005b3480156100d657600080fd5b506100f160048036038101906100ec9190610a30565b61034a565b6040516100fe9190610adc565b60405180910390f35b34801561011357600080fd5b5061011c6103ef565b6040516101299190610b0d565b60405180910390f35b34801561013e57600080fd5b506101476103f7565b6040516101549190610b0d565b60405180910390f35b34801561016957600080fd5b50610184600480360381019061017f9190610a30565b610401565b005b6101a0600480360381019061019b9190610a30565b6104af565b005b3480156101ae57600080fd5b506101c960048036038101906101c49190610a30565b610519565b6040516101d69190610adc565b60405180910390f35b3480156101eb57600080fd5b5061020660048036038101906102019190610b28565b6105b9565b6040516102139190610b93565b60405180910390f35b34801561022857600080fd5b50610243600480360381019061023e9190610c0c565b610624565b005b34801561025157600080fd5b5061026c60048036038101906102679190610c0c565b6106d6565b005b34801561027a57600080fd5b5061029560048036038101906102909190610c4c565b610795565b005b816005600085815260200190815260200160002060020190816102ba9190610eb4565b5080156103055760016005600085815260200190815260200160002060010160006101000a81548160ff021916908360038111156102fb576102fa610f86565b5b0217905550610345565b60036005600085815260200190815260200160002060010160006101000a81548160ff0219169083600381111561033f5761033e610f86565b5b02179055505b505050565b606060066000838152602001908152602001600020805461036a90610cd7565b80601f016020809104026020016040519081016040528092919081815260200182805461039690610cd7565b80156103e35780601f106103b8576101008083540402835291602001916103e3565b820191906000526020600020905b8154815290600101906020018083116103c657829003601f168201915b50505050509050919050565b600047905090565b6000600354905090565b600160009054906101000a900473ffffffffffffffffffffffffffffffffffffffff1673ffffffffffffffffffffffffffffffffffffffff166108fc60056000848152602001908152602001600020600001549081150290604051600060405180830381858888f1935050505015801561047f573d6000803e3d6000fd5b507f3158952e7c791deb52750003dbcb0fb942106f2bcd1005fb946a83cd6646fdc460405160405180910390a150565b80600360008282546104c19190610fe4565b925050819055503373ffffffffffffffffffffffffffffffffffffffff167f5e91ea8ea1c46300eb761859be01d7b16d44389ef91e03a163a87413cbf55b953460405161050e9190610b0d565b60405180910390a250565b6006602052806000526040600020600091509050805461053890610cd7565b80601f016020809104026020016040519081016040528092919081815260200182805461056490610cd7565b80156105b15780601f10610586576101008083540402835291602001916105b1565b820191906000526020600020905b81548152906001019060200180831161059457829003601f168201915b505050505081565b6000826040516020016105cc9190611054565b604051602081830303815290604052805190602001206006600084815260200190815260200160002060405160200161060591906110ee565b6040516020818303038152906040528051906020012014905092915050565b80600360008282546106369190611105565b925050819055508173ffffffffffffffffffffffffffffffffffffffff166108fc829081150290604051600060405180830381858888f19350505050158015610683573d6000803e3d6000fd5b508173ffffffffffffffffffffffffffffffffffffffff167f0cdb7e259318c69f16c8770399e09f5531befac5033bf7c447e3bc2961169295826040516106ca9190610b0d565b60405180910390a25050565b804710156106e357600080fd5b80600360008282546106f59190611105565b925050819055508173ffffffffffffffffffffffffffffffffffffffff166108fc829081150290604051600060405180830381858888f19350505050158015610742573d6000803e3d6000fd5b508173ffffffffffffffffffffffffffffffffffffffff167f69ca02dd4edd7bf0a4abb9ed3b7af3f14778db5d61921c7dc7cd545266326de2826040516107899190610b0d565b60405180910390a25050565b806006600084815260200190815260200160002090816107b59190610eb4565b5060006005600084815260200190815260200160002060010160006101000a81548160ff021916908360038111156107f0576107ef610f86565b5b02179055505050565b6000604051905090565b600080fd5b600080fd5b6000819050919050565b6108208161080d565b811461082b57600080fd5b50565b60008135905061083d81610817565b92915050565b600080fd5b600080fd5b6000601f19601f8301169050919050565b7f4e487b7100000000000000000000000000000000000000000000000000000000600052604160045260246000fd5b6108968261084d565b810181811067ffffffffffffffff821117156108b5576108b461085e565b5b80604052505050565b60006108c86107f9565b90506108d4828261088d565b919050565b600067ffffffffffffffff8211156108f4576108f361085e565b5b6108fd8261084d565b9050602081019050919050565b82818337600083830152505050565b600061092c610927846108d9565b6108be565b90508281526020810184848401111561094857610947610848565b5b61095384828561090a565b509392505050565b600082601f8301126109705761096f610843565b5b8135610980848260208601610919565b91505092915050565b60008115159050919050565b61099e81610989565b81146109a957600080fd5b50565b6000813590506109bb81610995565b92915050565b6000806000606084860312156109da576109d9610803565b5b60006109e88682870161082e565b935050602084013567ffffffffffffffff811115610a0957610a08610808565b5b610a158682870161095b565b9250506040610a26868287016109ac565b9150509250925092565b600060208284031215610a4657610a45610803565b5b6000610a548482850161082e565b91505092915050565b600081519050919050565b600082825260208201905092915050565b60005b83811015610a97578082015181840152602081019050610a7c565b60008484015250505050565b6000610aae82610a5d565b610ab88185610a68565b9350610ac8818560208601610a79565b610ad18161084d565b840191505092915050565b60006020820190508181036000830152610af68184610aa3565b905092915050565b610b078161080d565b82525050565b6000602082019050610b226000830184610afe565b92915050565b60008060408385031215610b3f57610b3e610803565b5b600083013567ffffffffffffffff811115610b5d57610b5c610808565b5b610b698582860161095b565b9250506020610b7a8582860161082e565b9150509250929050565b610b8d81610989565b82525050565b6000602082019050610ba86000830184610b84565b92915050565b600073ffffffffffffffffffffffffffffffffffffffff82169050919050565b6000610bd982610bae565b9050919050565b610be981610bce565b8114610bf457600080fd5b50565b600081359050610c0681610be0565b92915050565b60008060408385031215610c2357610c22610803565b5b6000610c3185828601610bf7565b9250506020610c428582860161082e565b9150509250929050565b60008060408385031215610c6357610c62610803565b5b6000610c718582860161082e565b925050602083013567ffffffffffffffff811115610c9257610c91610808565b5b610c9e8582860161095b565b9150509250929050565b7f4e487b7100000000000000000000000000000000000000000000000000000000600052602260045260246000fd5b60006002820490506001821680610cef57607f821691505b602082108103610d0257610d01610ca8565b5b50919050565b60008190508160005260206000209050919050565b60006020601f8301049050919050565b600082821b905092915050565b600060088302610d6a7fffffffffffffffffffffffffffffffffffffffffffffffffffffffffffffffff82610d2d565b610d748683610d2d565b95508019841693508086168417925050509392505050565b6000819050919050565b6000610db1610dac610da78461080d565b610d8c565b61080d565b9050919050565b6000819050919050565b610dcb83610d96565b610ddf610dd782610db8565b848454610d3a565b825550505050565b600090565b610df4610de7565b610dff818484610dc2565b505050565b5b81811015610e2357610e18600082610dec565b600181019050610e05565b5050565b601f821115610e6857610e3981610d08565b610e4284610d1d565b81016020851015610e51578190505b610e65610e5d85610d1d565b830182610e04565b50505b505050565b600082821c905092915050565b6000610e8b60001984600802610e6d565b1980831691505092915050565b6000610ea48383610e7a565b9150826002028217905092915050565b610ebd82610a5d565b67ffffffffffffffff811115610ed657610ed561085e565b5b610ee08254610cd7565b610eeb828285610e27565b600060209050601f831160018114610f1e5760008415610f0c578287015190505b610f168582610e98565b865550610f7e565b601f198416610f2c86610d08565b60005b82811015610f5457848901518255600182019150602085019450602081019050610f2f565b86831015610f715784890151610f6d601f891682610e7a565b8355505b6001600288020188555050505b505050505050565b7f4e487b7100000000000000000000000000000000000000000000000000000000600052602160045260246000fd5b7f4e487b7100000000000000000000000000000000000000000000000000000000600052601160045260246000fd5b6000610fef8261080d565b9150610ffa8361080d565b925082820190508082111561101257611011610fb5565b5b92915050565b600081905092915050565b600061102e82610a5d565b6110388185611018565b9350611048818560208601610a79565b80840191505092915050565b60006110608284611023565b915081905092915050565b6000815461107881610cd7565b6110828186611018565b9450600182166000811461109d57600181146110b2576110e5565b60ff19831686528115158202860193506110e5565b6110bb85610d08565b60005b838110156110dd578154818901526001820191506020810190506110be565b838801955050505b50505092915050565b60006110fa828461106b565b915081905092915050565b60006111108261080d565b915061111b8361080d565b925082820390508181111561113357611132610fb5565b5b9291505056fea2646970667358221220aa14402a0944b16877b4c81983824142bbdc799b1cd1d2ea8c922165b74605be64736f6c63430008110033",
  "immutableReferences": {},
  "source": "// SPDX-License-Identifier: MIT\r\npragma solidity >=0.4.22 <0.9.0;\r\n\r\ncontract project{\r\n    event Pledge(address indexed caller, uint amount);\r\n    event Unpledge(address indexed target, uint amount);\r\n    event Transfer(address indexed target, uint amount);\r\n    event Claim();\r\n    enum State {completed, approved, notCompleted, notApproved}\r\n    //State state;\r\n    string projectId;\r\n    address payable company;\r\n    uint goal;\r\n    uint pledged;\r\n    /*struct proof{\r\n        string id;\r\n        string signature;\r\n    }*/\r\n    string imagehash;\r\n    //Ori\r\n    /*struct milestone{\r\n        uint seq;\r\n        uint amount;\r\n    }*/\r\n    //mapping(uint => milestone) milestones;\r\n    struct milestone{\r\n        uint amount;\r\n        State state;\r\n        string response;\r\n    }\r\n    mapping(uint => milestone) milestones;\r\n    mapping(uint => string) public proofs;\r\n\r\n    //Ori\r\n    /*constructor (string memory _projectId, milestone[] memory _milestone, address payable _company) payable{\r\n        //fundAmount = msg.value;\r\n        projectId = _projectId;\r\n        for (uint i = 1; i <= _milestone.length; i++) {\r\n            milestones[i] = _milestone[i-1];\r\n        }\r\n        company = _company;\r\n        //backer = _backer;\r\n    }*/\r\n\r\n    constructor (string memory _projectId, uint[] memory _milestone, address payable _company) payable{\r\n        //fundAmount = msg.value;\r\n        projectId = _projectId;\r\n        for (uint i = 1; i <= _milestone.length; i++) {\r\n            milestones[i] = milestone(_milestone[i-1], State.notCompleted, \"\");\r\n        }\r\n        company = _company;\r\n        //backer = _backer;\r\n    }\r\n\r\n    function pledge(uint _amount) external payable {\r\n        //pledgedAmount[_id][msg.sender] += _amount;\r\n        // transfer fund to smart contract\r\n        pledged += _amount;\r\n        emit Pledge(msg.sender, msg.value);\r\n    }\r\n\r\n    function unpledge(address payable backer, uint _amount) external {\r\n\r\n        pledged -= _amount;\r\n        backer.transfer(_amount);\r\n\r\n        emit Unpledge(backer, _amount);\r\n    }\r\n\r\n    function transferFund(address payable backer, uint _amount) external {\r\n        require(address(this).balance >= _amount);\r\n        pledged -= _amount;\r\n        backer.transfer(_amount);\r\n\r\n        emit Transfer(backer, _amount);\r\n    }\r\n\r\n    function getPledged() public view returns (uint){\r\n        return pledged;\r\n    }\r\n\r\n    function getBalance() public view returns (uint){\r\n        return address(this).balance;\r\n    }\r\n\r\n    function getProof(uint seq) public view returns (string memory){\r\n        return proofs[seq];\r\n    }\r\n\r\n    function compareProof(string memory _proof, uint seq) public view returns (bool){\r\n        return keccak256(abi.encodePacked(proofs[seq])) == keccak256(abi.encodePacked(_proof));\r\n    }\r\n\r\n    function claim(uint milestoneseq) external {\r\n        company.transfer(milestones[milestoneseq].amount);\r\n\r\n        emit Claim();\r\n    }\r\n\r\n    /*function uploadProof(string memory _proofId) public{\r\n        proofId = _proofId;\r\n        state = State.completed;\r\n    }*/\r\n\r\n    function uploadProof(uint milestoneseq, string memory _proof) public{\r\n        /*for (uint i = 1; i <= _proof.length; i++) {\r\n            proofs[milestoneseq].push(_proof[i-1]);\r\n        }*/\r\n        proofs[milestoneseq] = _proof;\r\n        milestones[milestoneseq].state = State.completed;\r\n    }\r\n\r\n    function uploadApproval(uint milestoneseq, string memory _response, bool approved) public{\r\n        /*for (uint i = 1; i <= _proof.length; i++) {\r\n            proofs[milestoneseq].push(_proof[i-1]);\r\n        }*/\r\n        milestones[milestoneseq].response = _response;\r\n        if(approved){\r\n            milestones[milestoneseq].state = State.approved;\r\n        } else {\r\n            milestones[milestoneseq].state = State.notApproved;\r\n        }\r\n    }\r\n\r\n    /*function verifyProof(bool isApproved) public{\r\n        if(isApproved){ \r\n            state = State.approved;\r\n            releaseFund();\r\n        } else {\r\n            state = State.notApproved;\r\n            //returnFund();\r\n        }\r\n    }*/\r\n\r\n    /*function releaseFund() public payable{\r\n        require(state == State.approved,\"Proof is not approved\");\r\n        company.transfer(balance);\r\n    }\r\n\r\n    function returnFund(address payable backer) public payable{\r\n        require(state == State.notApproved,\"It does not meet the requirement to return fund\");\r\n        backer.transfer(balance);\r\n    }*/\r\n}",
  "sourcePath": "D:\\Documents\\CAT403 blockchain-based crowdfunding platform\\server\\contract\\contracts\\project.sol",
  "compiler": {
    "name": "solc",
    "version": "0.8.17+commit.8df45f5f.Emscripten.clang"
  },
  "schemaVersion": "3.4.11",
  "updatedAt": "2023-06-12T16:55:31.919Z",
  "devdoc": {
    "kind": "dev",
    "methods": {},
    "version": 1
  },
  "userdoc": {
    "kind": "user",
    "methods": {},
    "version": 1
  }
}