{
  "contractName": "project",
  "abi": [
    {
      "inputs": [
        {
          "internalType": "string",
          "name": "_projectId",
          "type": "string"
        },
        {
          "internalType": "uint256[]",
          "name": "_milestone",
          "type": "uint256[]"
        },
        {
          "internalType": "address payable",
          "name": "_company",
          "type": "address"
        }
      ],
      "stateMutability": "payable",
      "type": "constructor"
    },
    {
      "anonymous": false,
      "inputs": [],
      "name": "Claim",
      "type": "event"
    },
    {
      "anonymous": false,
      "inputs": [
        {
          "indexed": true,
          "internalType": "address",
          "name": "caller",
          "type": "address"
        },
        {
          "indexed": false,
          "internalType": "uint256",
          "name": "amount",
          "type": "uint256"
        }
      ],
      "name": "Pledge",
      "type": "event"
    },
    {
      "anonymous": false,
      "inputs": [
        {
          "indexed": true,
          "internalType": "address",
          "name": "target",
          "type": "address"
        },
        {
          "indexed": false,
          "internalType": "uint256",
          "name": "amount",
          "type": "uint256"
        }
      ],
      "name": "Transfer",
      "type": "event"
    },
    {
      "anonymous": false,
      "inputs": [
        {
          "indexed": true,
          "internalType": "address",
          "name": "target",
          "type": "address"
        },
        {
          "indexed": false,
          "internalType": "uint256",
          "name": "amount",
          "type": "uint256"
        }
      ],
      "name": "Unpledge",
      "type": "event"
    },
    {
      "inputs": [
        {
          "internalType": "uint256",
          "name": "",
          "type": "uint256"
        },
        {
          "internalType": "uint256",
          "name": "",
          "type": "uint256"
        }
      ],
      "name": "proofs",
      "outputs": [
        {
          "internalType": "string",
          "name": "id",
          "type": "string"
        },
        {
          "internalType": "string",
          "name": "signature",
          "type": "string"
        }
      ],
      "stateMutability": "view",
      "type": "function"
    },
    {
      "inputs": [
        {
          "internalType": "uint256",
          "name": "_amount",
          "type": "uint256"
        }
      ],
      "name": "pledge",
      "outputs": [],
      "stateMutability": "payable",
      "type": "function"
    },
    {
      "inputs": [
        {
          "internalType": "address payable",
          "name": "backer",
          "type": "address"
        },
        {
          "internalType": "uint256",
          "name": "_amount",
          "type": "uint256"
        }
      ],
      "name": "unpledge",
      "outputs": [],
      "stateMutability": "nonpayable",
      "type": "function"
    },
    {
      "inputs": [
        {
          "internalType": "address payable",
          "name": "backer",
          "type": "address"
        },
        {
          "internalType": "uint256",
          "name": "_amount",
          "type": "uint256"
        }
      ],
      "name": "transferFund",
      "outputs": [],
      "stateMutability": "nonpayable",
      "type": "function"
    },
    {
      "inputs": [],
      "name": "getPledged",
      "outputs": [
        {
          "internalType": "uint256",
          "name": "",
          "type": "uint256"
        }
      ],
      "stateMutability": "view",
      "type": "function"
    },
    {
      "inputs": [],
      "name": "getBalance",
      "outputs": [
        {
          "internalType": "uint256",
          "name": "",
          "type": "uint256"
        }
      ],
      "stateMutability": "view",
      "type": "function"
    },
    {
      "inputs": [],
      "name": "getProof",
      "outputs": [
        {
          "components": [
            {
              "internalType": "string",
              "name": "id",
              "type": "string"
            },
            {
              "internalType": "string",
              "name": "signature",
              "type": "string"
            }
          ],
          "internalType": "struct project.proof[]",
          "name": "",
          "type": "tuple[]"
        }
      ],
      "stateMutability": "view",
      "type": "function"
    },
    {
      "inputs": [
        {
          "internalType": "uint256",
          "name": "milestoneseq",
          "type": "uint256"
        }
      ],
      "name": "claim",
      "outputs": [],
      "stateMutability": "nonpayable",
      "type": "function"
    },
    {
      "inputs": [
        {
          "internalType": "uint256",
          "name": "milestoneseq",
          "type": "uint256"
        },
        {
          "components": [
            {
              "internalType": "string",
              "name": "id",
              "type": "string"
            },
            {
              "internalType": "string",
              "name": "signature",
              "type": "string"
            }
          ],
          "internalType": "struct project.proof[]",
          "name": "_proof",
          "type": "tuple[]"
        }
      ],
      "name": "uploadProof",
      "outputs": [],
      "stateMutability": "nonpayable",
      "type": "function"
    }
  ],
  "bytecode": "0x608060405260405162001cde38038062001cde833981810160405281019062000029919062000463565b82600090816200003a91906200073e565b506000600190505b825181116200010a5760405180604001604052808460018462000066919062000854565b815181106200007a57620000796200088f565b5b60200260200101518152602001600260038111156200009e576200009d620008be565b5b815250600460008381526020019081526020016000206000820151816000015560208201518160010160006101000a81548160ff02191690836003811115620000ec57620000eb620008be565b5b021790555090505080806200010190620008ed565b91505062000042565b5080600160006101000a81548173ffffffffffffffffffffffffffffffffffffffff021916908373ffffffffffffffffffffffffffffffffffffffff1602179055505050506200093a565b6000604051905090565b600080fd5b600080fd5b600080fd5b600080fd5b6000601f19601f8301169050919050565b7f4e487b7100000000000000000000000000000000000000000000000000000000600052604160045260246000fd5b620001be8262000173565b810181811067ffffffffffffffff82111715620001e057620001df62000184565b5b80604052505050565b6000620001f562000155565b9050620002038282620001b3565b919050565b600067ffffffffffffffff82111562000226576200022562000184565b5b620002318262000173565b9050602081019050919050565b60005b838110156200025e57808201518184015260208101905062000241565b60008484015250505050565b6000620002816200027b8462000208565b620001e9565b905082815260208101848484011115620002a0576200029f6200016e565b5b620002ad8482856200023e565b509392505050565b600082601f830112620002cd57620002cc62000169565b5b8151620002df8482602086016200026a565b91505092915050565b600067ffffffffffffffff82111562000306576200030562000184565b5b602082029050602081019050919050565b600080fd5b6000819050919050565b62000331816200031c565b81146200033d57600080fd5b50565b600081519050620003518162000326565b92915050565b60006200036e6200036884620002e8565b620001e9565b9050808382526020820190506020840283018581111562000394576200039362000317565b5b835b81811015620003c15780620003ac888262000340565b84526020840193505060208101905062000396565b5050509392505050565b600082601f830112620003e357620003e262000169565b5b8151620003f584826020860162000357565b91505092915050565b600073ffffffffffffffffffffffffffffffffffffffff82169050919050565b60006200042b82620003fe565b9050919050565b6200043d816200041e565b81146200044957600080fd5b50565b6000815190506200045d8162000432565b92915050565b6000806000606084860312156200047f576200047e6200015f565b5b600084015167ffffffffffffffff811115620004a0576200049f62000164565b5b620004ae86828701620002b5565b935050602084015167ffffffffffffffff811115620004d257620004d162000164565b5b620004e086828701620003cb565b9250506040620004f3868287016200044c565b9150509250925092565b600081519050919050565b7f4e487b7100000000000000000000000000000000000000000000000000000000600052602260045260246000fd5b600060028204905060018216806200055057607f821691505b60208210810362000566576200056562000508565b5b50919050565b60008190508160005260206000209050919050565b60006020601f8301049050919050565b600082821b905092915050565b600060088302620005d07fffffffffffffffffffffffffffffffffffffffffffffffffffffffffffffffff8262000591565b620005dc868362000591565b95508019841693508086168417925050509392505050565b6000819050919050565b60006200061f6200061962000613846200031c565b620005f4565b6200031c565b9050919050565b6000819050919050565b6200063b83620005fe565b620006536200064a8262000626565b8484546200059e565b825550505050565b600090565b6200066a6200065b565b6200067781848462000630565b505050565b5b818110156200069f576200069360008262000660565b6001810190506200067d565b5050565b601f821115620006ee57620006b8816200056c565b620006c38462000581565b81016020851015620006d3578190505b620006eb620006e28562000581565b8301826200067c565b50505b505050565b600082821c905092915050565b60006200071360001984600802620006f3565b1980831691505092915050565b60006200072e838362000700565b9150826002028217905092915050565b6200074982620004fd565b67ffffffffffffffff81111562000765576200076462000184565b5b62000771825462000537565b6200077e828285620006a3565b600060209050601f831160018114620007b65760008415620007a1578287015190505b620007ad858262000720565b8655506200081d565b601f198416620007c6866200056c565b60005b82811015620007f057848901518255600182019150602085019450602081019050620007c9565b868310156200081057848901516200080c601f89168262000700565b8355505b6001600288020188555050505b505050505050565b7f4e487b7100000000000000000000000000000000000000000000000000000000600052601160045260246000fd5b600062000861826200031c565b91506200086e836200031c565b925082820390508181111562000889576200088862000825565b5b92915050565b7f4e487b7100000000000000000000000000000000000000000000000000000000600052603260045260246000fd5b7f4e487b7100000000000000000000000000000000000000000000000000000000600052602160045260246000fd5b6000620008fa826200031c565b91507fffffffffffffffffffffffffffffffffffffffffffffffffffffffffffffffff82036200092f576200092e62000825565b5b600182019050919050565b611394806200094a6000396000f3fe6080604052600436106100865760003560e01c80635ef77949116100595780635ef77949146101355780637326c9c014610173578063c48399751461018f578063e2dc35e0146101b8578063ecd56540146101e157610086565b806312065fe01461008b57806328c2cd40146100b6578063379607f5146100e15780635c5d625e1461010a575b600080fd5b34801561009757600080fd5b506100a061020a565b6040516100ad919061089b565b60405180910390f35b3480156100c257600080fd5b506100cb610212565b6040516100d8919061089b565b60405180910390f35b3480156100ed57600080fd5b50610108600480360381019061010391906108f6565b61021c565b005b34801561011657600080fd5b5061011f6102ca565b60405161012c9190610ab9565b60405180910390f35b34801561014157600080fd5b5061015c60048036038101906101579190610adb565b61045f565b60405161016a929190610b65565b60405180910390f35b61018d600480360381019061018891906108f6565b6105b0565b005b34801561019b57600080fd5b506101b660048036038101906101b19190610bfa565b61061a565b005b3480156101c457600080fd5b506101df60048036038101906101da9190610bfa565b6106cc565b005b3480156101ed57600080fd5b5061020860048036038101906102039190610ee7565b61078b565b005b600047905090565b6000600354905090565b600160009054906101000a900473ffffffffffffffffffffffffffffffffffffffff1673ffffffffffffffffffffffffffffffffffffffff166108fc60046000848152602001908152602001600020600001549081150290604051600060405180830381858888f1935050505015801561029a573d6000803e3d6000fd5b507f3158952e7c791deb52750003dbcb0fb942106f2bcd1005fb946a83cd6646fdc460405160405180910390a150565b60606005600060018152602001908152602001600020805480602002602001604051908101604052809291908181526020016000905b82821015610456578382906000526020600020906002020160405180604001604052908160008201805461033390610f72565b80601f016020809104026020016040519081016040528092919081815260200182805461035f90610f72565b80156103ac5780601f10610381576101008083540402835291602001916103ac565b820191906000526020600020905b81548152906001019060200180831161038f57829003601f168201915b505050505081526020016001820180546103c590610f72565b80601f01602080910402602001604051908101604052809291908181526020018280546103f190610f72565b801561043e5780601f106104135761010080835404028352916020019161043e565b820191906000526020600020905b81548152906001019060200180831161042157829003601f168201915b50505050508152505081526020019060010190610300565b50505050905090565b6005602052816000526040600020818154811061047b57600080fd5b90600052602060002090600202016000915091505080600001805461049f90610f72565b80601f01602080910402602001604051908101604052809291908181526020018280546104cb90610f72565b80156105185780601f106104ed57610100808354040283529160200191610518565b820191906000526020600020905b8154815290600101906020018083116104fb57829003601f168201915b50505050509080600101805461052d90610f72565b80601f016020809104026020016040519081016040528092919081815260200182805461055990610f72565b80156105a65780601f1061057b576101008083540402835291602001916105a6565b820191906000526020600020905b81548152906001019060200180831161058957829003601f168201915b5050505050905082565b80600360008282546105c29190610fd2565b925050819055503373ffffffffffffffffffffffffffffffffffffffff167f5e91ea8ea1c46300eb761859be01d7b16d44389ef91e03a163a87413cbf55b953460405161060f919061089b565b60405180910390a250565b806003600082825461062c9190611006565b925050819055508173ffffffffffffffffffffffffffffffffffffffff166108fc829081150290604051600060405180830381858888f19350505050158015610679573d6000803e3d6000fd5b508173ffffffffffffffffffffffffffffffffffffffff167f0cdb7e259318c69f16c8770399e09f5531befac5033bf7c447e3bc2961169295826040516106c0919061089b565b60405180910390a25050565b804710156106d957600080fd5b80600360008282546106eb9190611006565b925050819055508173ffffffffffffffffffffffffffffffffffffffff166108fc829081150290604051600060405180830381858888f19350505050158015610738573d6000803e3d6000fd5b508173ffffffffffffffffffffffffffffffffffffffff167f69ca02dd4edd7bf0a4abb9ed3b7af3f14778db5d61921c7dc7cd545266326de28260405161077f919061089b565b60405180910390a25050565b6000600190505b8151811161083e5760056000848152602001908152602001600020826001836107bb9190611006565b815181106107cc576107cb61103a565b5b6020026020010151908060018154018082558091505060019003906000526020600020906002020160009091909190915060008201518160000190816108129190611215565b5060208201518160010190816108289190611215565b5050508080610836906112e7565b915050610792565b5060006004600084815260200190815260200160002060010160006101000a81548160ff021916908360038111156108795761087861132f565b5b02179055505050565b6000819050919050565b61089581610882565b82525050565b60006020820190506108b0600083018461088c565b92915050565b6000604051905090565b600080fd5b600080fd5b6108d381610882565b81146108de57600080fd5b50565b6000813590506108f0816108ca565b92915050565b60006020828403121561090c5761090b6108c0565b5b600061091a848285016108e1565b91505092915050565b600081519050919050565b600082825260208201905092915050565b6000819050602082019050919050565b600081519050919050565b600082825260208201905092915050565b60005b8381101561098957808201518184015260208101905061096e565b60008484015250505050565b6000601f19601f8301169050919050565b60006109b18261094f565b6109bb818561095a565b93506109cb81856020860161096b565b6109d481610995565b840191505092915050565b600060408301600083015184820360008601526109fc82826109a6565b91505060208301518482036020860152610a1682826109a6565b9150508091505092915050565b6000610a2f83836109df565b905092915050565b6000602082019050919050565b6000610a4f82610923565b610a59818561092e565b935083602082028501610a6b8561093f565b8060005b85811015610aa75784840389528151610a888582610a23565b9450610a9383610a37565b925060208a01995050600181019050610a6f565b50829750879550505050505092915050565b60006020820190508181036000830152610ad38184610a44565b905092915050565b60008060408385031215610af257610af16108c0565b5b6000610b00858286016108e1565b9250506020610b11858286016108e1565b9150509250929050565b600082825260208201905092915050565b6000610b378261094f565b610b418185610b1b565b9350610b5181856020860161096b565b610b5a81610995565b840191505092915050565b60006040820190508181036000830152610b7f8185610b2c565b90508181036020830152610b938184610b2c565b90509392505050565b600073ffffffffffffffffffffffffffffffffffffffff82169050919050565b6000610bc782610b9c565b9050919050565b610bd781610bbc565b8114610be257600080fd5b50565b600081359050610bf481610bce565b92915050565b60008060408385031215610c1157610c106108c0565b5b6000610c1f85828601610be5565b9250506020610c30858286016108e1565b9150509250929050565b600080fd5b7f4e487b7100000000000000000000000000000000000000000000000000000000600052604160045260246000fd5b610c7782610995565b810181811067ffffffffffffffff82111715610c9657610c95610c3f565b5b80604052505050565b6000610ca96108b6565b9050610cb58282610c6e565b919050565b600067ffffffffffffffff821115610cd557610cd4610c3f565b5b602082029050602081019050919050565b600080fd5b600080fd5b600080fd5b600080fd5b600067ffffffffffffffff821115610d1557610d14610c3f565b5b610d1e82610995565b9050602081019050919050565b82818337600083830152505050565b6000610d4d610d4884610cfa565b610c9f565b905082815260208101848484011115610d6957610d68610cf5565b5b610d74848285610d2b565b509392505050565b600082601f830112610d9157610d90610c3a565b5b8135610da1848260208601610d3a565b91505092915050565b600060408284031215610dc057610dbf610ceb565b5b610dca6040610c9f565b9050600082013567ffffffffffffffff811115610dea57610de9610cf0565b5b610df684828501610d7c565b600083015250602082013567ffffffffffffffff811115610e1a57610e19610cf0565b5b610e2684828501610d7c565b60208301525092915050565b6000610e45610e4084610cba565b610c9f565b90508083825260208201905060208402830185811115610e6857610e67610ce6565b5b835b81811015610eaf57803567ffffffffffffffff811115610e8d57610e8c610c3a565b5b808601610e9a8982610daa565b85526020850194505050602081019050610e6a565b5050509392505050565b600082601f830112610ece57610ecd610c3a565b5b8135610ede848260208601610e32565b91505092915050565b60008060408385031215610efe57610efd6108c0565b5b6000610f0c858286016108e1565b925050602083013567ffffffffffffffff811115610f2d57610f2c6108c5565b5b610f3985828601610eb9565b9150509250929050565b7f4e487b7100000000000000000000000000000000000000000000000000000000600052602260045260246000fd5b60006002820490506001821680610f8a57607f821691505b602082108103610f9d57610f9c610f43565b5b50919050565b7f4e487b7100000000000000000000000000000000000000000000000000000000600052601160045260246000fd5b6000610fdd82610882565b9150610fe883610882565b925082820190508082111561100057610fff610fa3565b5b92915050565b600061101182610882565b915061101c83610882565b925082820390508181111561103457611033610fa3565b5b92915050565b7f4e487b7100000000000000000000000000000000000000000000000000000000600052603260045260246000fd5b60008190508160005260206000209050919050565b60006020601f8301049050919050565b600082821b905092915050565b6000600883026110cb7fffffffffffffffffffffffffffffffffffffffffffffffffffffffffffffffff8261108e565b6110d5868361108e565b95508019841693508086168417925050509392505050565b6000819050919050565b600061111261110d61110884610882565b6110ed565b610882565b9050919050565b6000819050919050565b61112c836110f7565b61114061113882611119565b84845461109b565b825550505050565b600090565b611155611148565b611160818484611123565b505050565b5b818110156111845761117960008261114d565b600181019050611166565b5050565b601f8211156111c95761119a81611069565b6111a38461107e565b810160208510156111b2578190505b6111c66111be8561107e565b830182611165565b50505b505050565b600082821c905092915050565b60006111ec600019846008026111ce565b1980831691505092915050565b600061120583836111db565b9150826002028217905092915050565b61121e8261094f565b67ffffffffffffffff81111561123757611236610c3f565b5b6112418254610f72565b61124c828285611188565b600060209050601f83116001811461127f576000841561126d578287015190505b61127785826111f9565b8655506112df565b601f19841661128d86611069565b60005b828110156112b557848901518255600182019150602085019450602081019050611290565b868310156112d257848901516112ce601f8916826111db565b8355505b6001600288020188555050505b505050505050565b60006112f282610882565b91507fffffffffffffffffffffffffffffffffffffffffffffffffffffffffffffffff820361132457611323610fa3565b5b600182019050919050565b7f4e487b7100000000000000000000000000000000000000000000000000000000600052602160045260246000fdfea2646970667358221220058856d991c5abeca51d5973e7ef7b3177c7da0074bc93e37db149a2eb3f287964736f6c63430008110033",
  "immutableReferences": {},
  "source": "// SPDX-License-Identifier: MIT\r\npragma solidity >=0.4.22 <0.9.0;\r\n\r\ncontract project{\r\n    event Pledge(address indexed caller, uint amount);\r\n    event Unpledge(address indexed target, uint amount);\r\n    event Transfer(address indexed target, uint amount);\r\n    event Claim();\r\n    enum State {completed, approved, notCompleted, notApproved}\r\n    //State state;\r\n    string projectId;\r\n    address payable company;\r\n    uint goal;\r\n    uint pledged;\r\n    struct proof{\r\n        string id;\r\n        string signature;\r\n    }\r\n    //Ori\r\n    /*struct milestone{\r\n        uint seq;\r\n        uint amount;\r\n    }*/\r\n    //mapping(uint => milestone) milestones;\r\n    struct milestone{\r\n        uint amount;\r\n        State state;\r\n    }\r\n    mapping(uint => milestone) milestones;\r\n    mapping(uint => proof[]) public proofs;\r\n\r\n    //Ori\r\n    /*constructor (string memory _projectId, milestone[] memory _milestone, address payable _company) payable{\r\n        //fundAmount = msg.value;\r\n        projectId = _projectId;\r\n        for (uint i = 1; i <= _milestone.length; i++) {\r\n            milestones[i] = _milestone[i-1];\r\n        }\r\n        company = _company;\r\n        //backer = _backer;\r\n    }*/\r\n\r\n    constructor (string memory _projectId, uint[] memory _milestone, address payable _company) payable{\r\n        //fundAmount = msg.value;\r\n        projectId = _projectId;\r\n        for (uint i = 1; i <= _milestone.length; i++) {\r\n            milestones[i] = milestone(_milestone[i-1], State.notCompleted);\r\n        }\r\n        company = _company;\r\n        //backer = _backer;\r\n    }\r\n\r\n    function pledge(uint _amount) external payable {\r\n        //pledgedAmount[_id][msg.sender] += _amount;\r\n        // transfer fund to smart contract\r\n        pledged += _amount;\r\n        emit Pledge(msg.sender, msg.value);\r\n    }\r\n\r\n    function unpledge(address payable backer, uint _amount) external {\r\n\r\n        pledged -= _amount;\r\n        backer.transfer(_amount);\r\n\r\n        emit Unpledge(backer, _amount);\r\n    }\r\n\r\n    function transferFund(address payable backer, uint _amount) external {\r\n        require(address(this).balance >= _amount);\r\n        pledged -= _amount;\r\n        backer.transfer(_amount);\r\n\r\n        emit Transfer(backer, _amount);\r\n    }\r\n\r\n    function getPledged() public view returns (uint){\r\n        return pledged;\r\n    }\r\n\r\n    function getBalance() public view returns (uint){\r\n        return address(this).balance;\r\n    }\r\n\r\n    function getProof() public view returns (proof[] memory){\r\n        return proofs[1];\r\n    }\r\n\r\n    function claim(uint milestoneseq) external {\r\n        company.transfer(milestones[milestoneseq].amount);\r\n\r\n        emit Claim();\r\n    }\r\n\r\n    /*function uploadProof(string memory _proofId) public{\r\n        proofId = _proofId;\r\n        state = State.completed;\r\n    }*/\r\n\r\n    function uploadProof(uint milestoneseq, proof[] memory _proof) public{\r\n        for (uint i = 1; i <= _proof.length; i++) {\r\n            proofs[milestoneseq].push(_proof[i-1]);\r\n        }\r\n        milestones[milestoneseq].state = State.completed;\r\n    }\r\n\r\n    /*function verifyProof(bool isApproved) public{\r\n        if(isApproved){ \r\n            state = State.approved;\r\n            releaseFund();\r\n        } else {\r\n            state = State.notApproved;\r\n            //returnFund();\r\n        }\r\n    }*/\r\n\r\n    /*function releaseFund() public payable{\r\n        require(state == State.approved,\"Proof is not approved\");\r\n        company.transfer(balance);\r\n    }\r\n\r\n    function returnFund(address payable backer) public payable{\r\n        require(state == State.notApproved,\"It does not meet the requirement to return fund\");\r\n        backer.transfer(balance);\r\n    }*/\r\n}\r\n",
  "sourcePath": "D:\\Documents\\CAT403 blockchain-based crowdfunding platform\\server\\contract\\contracts\\project.sol",
  "compiler": {
    "name": "solc",
    "version": "0.8.17+commit.8df45f5f.Emscripten.clang"
  },
  "schemaVersion": "3.4.11",
  "updatedAt": "2023-05-24T15:10:56.781Z",
  "devdoc": {
    "kind": "dev",
    "methods": {},
    "version": 1
  },
  "userdoc": {
    "kind": "user",
    "methods": {},
    "version": 1
  }
}